:100000000C94EB020C9406030C9406030C94060368
:100010000C9406030C9406030C9406030C9406033C
:100020000C9406030C9406030C9406030C947E08AF
:100030000C94F7080C9406030C9406030C94060326
:100040000C9406030C9406030C9406030C946A07A4
:100050000C9406030C9406030C9406030C940603FC
:100060000C9406030C9406030C9406030C940603EC
:100070000C940603B500B600B700CC00CD00E2003A
:10008000E900EA0083018A0192019401210223021E
:1000900024022502260227022A027E696D0B0F1B0D
:1000A0001F2B2F3B7A6E786C684F4B3F7FFFFFFF13
:1000B000FFFFFFFFFFFFFFFFFFFDFBF9F7F3EDE59C
:1000C000DDD1C5B5A59583736346281405000514D5
:1000D000284663738395A5B5C5D1DDE5EDF3F7F942
:1000E000FBFDFFFFFFFFFFFFFFFFFFFFFF00E4003F
:1000F00000E048003E45282A3142004443E6000023
:10010000000047E246F037400F411200260036302B
:100110000E2E0C3F2511101C0D23180B240519174A
:100120000922150A2100063C073B083D20001B3927
:10013000163A1A641F001D2B043514291E51FF2185
:100140001E4C242C004F54221F492527000000007C
:10015000E7000000000000E1E500000000500000A2
:10016000584A57524D0000E3000000000056552346
:10017000204B26374E38002F332D13342700F00044
:1001800000E0C40000F9582A3181000082E6000036
:10019000000047E2FAF063005B005E006100363069
:1001A0005A2E5D006000620059005C005F00000094
:1001B0000000000000000000000000000000003906
:1001C000000000640000002B0000002900FDFF215A
:1001D0001EFB242C00C038221FC125270000000070
:1001E000E7000000000000E1E500000000C10000A1
:1001F00028C057FCC50000E300000000002D552377
:1002000020C62637C754002F575600556200F0000D
:1002100000E0C400C4C6282A31FE00C7C5E60000BD
:10022000000047E246F037C10FC01200260036300A
:100230000E2E0CC22511C91C0DA5180B24CD1917A3
:1002400009A2150A2100CA3C073B083DA4001B393E
:10025000163A1A641F001D2BC83514A0A14EFF5C6E
:10026000A1C25F2C004D54A25AC560A3000000003B
:10027000FE000000000000E1E5000000004A000070
:1002800058C1574BC00000FE00000000005655A5A5
:10029000A4C66163C738002F332D1334A300E400D4
:1002A00000E048003E45282A3142004443E6000071
:1002B000000047E246F037400F411200260036307A
:1002C0000E2E0C3F2511101C0D23180B2405191799
:1002D0000922150A2100063C073B083D20001B3976
:1002E000163A1A641F001D2B043514291E51535C45
:1002F000594C5F2C004F545D5A4960620000000069
:10030000E7000000000000E1E500000000500000F0
:10031000584A57524D0000E3000000000056555E59
:100320005B4B61634E38002F332D13342709023B9A
:1003300000020100A01909040000010301010009E5
:100340002111010001223D0007058303100001096E
:100350000401000103000000092111010001223005
:10036000000705840303000A120100020000004098
:10037000D9042323010101020001020326034B00DB
:100380006500790062006F00610072006400200067
:1003900052004B002D0039003000300030002000AA
:1003A00020002E0343006F00730074006100720090
:1003B000200045006C0065006300740072006F004F
:1003C0006E00690063007300200049006E00630046
:1003D0000403090405010980A1018501158125B7E0
:1003E000198129B7751095018100C0050C0901A17B
:1003F0000185021501269C0219012A9C027510959F
:10040000018100C005010906A101750195080507D4
:1004100019E029E71500250181029501750881037E
:1004200095057501050819012905910295039103A8
:10043000950E7508150025DD0507190029DD8100D9
:10044000C00001000068030112000200002D03013A
:100450003B002100003F03010900220000040401C9
:100460003D002101005803010900220100D40301CD
:100470003000030000D003010401030904A20301BA
:100480002E020309047C030126030309047A0301F5
:1004900002000001C11601C1060C0009002C00E198
:1004A0000026002C0000002C00E10027002800E1BD
:1004B000002F002800E10030005200000052000030
:1004C000004F0000004F0000004F0000004F0000F0
:1004D00000280008000F00160008002800E1002F87
:1004E000002800E10030005200280000000900123E
:1004F0000015002C00E10026002C00330000003322
:10050000002C00E10027002800E1002F002800E176
:1005100000300052000000520000004F0000004F69
:100520000000004F0000004F0000004F0000004F8F
:10053000000000070012002800E1002F002800E161
:1005400000300028001A000B000C000F0008002CDF
:1005500000E10026002C0000002C00E10027002C08
:100560000033005000000050000000500000005018
:10057000000000620000006200000035000000E89A
:1005800083190012000C0006000800E1002D00167F
:10059000000B0012001A00E1002D001000180017D7
:1005A00000080028000000F481190012000C000669
:1005B000000800E1002D0010001800170008002CB2
:1005C0000000001C99040ED10423ED04203305041F
:1005D0007305247B050011241FBECFEFD4E0DEBFDE
:1005E000CDBF14BE88E10FB6F894809360001092DE
:1005F00060000FBE11E0A0E0B1E001C01D92A43E7A
:10060000B107E1F70E94580B0C94320C0C940000D7
:100610008091BD01882341F0813019F48CE092E093
:100620000CC08CE791E009C08091BA01882319F0D1
:100630008CEE90E002C08CE992E09093C001809330
:10064000BF010895613520F4962F990F909509C048
:1006500094EB961B20E530E0261B3109220F220F78
:10066000920F86FD9093880085FD90938A0087FD08
:1006700090938C000895CF93DF93E091BF01F091A8
:10068000C001E80FF11D9491992309F417C197FF58
:10069000DFC0292F207F203E09F52091BB012111C9
:1006A0000DC12091B901222329F0292F2B7F233E50
:1006B00009F404C19770A92FB0E0AF55BE4F1E9644
:1006C0008C930024039401C0000C9A95EAF7902DB6
:1006D0008091D301982B9093D301EEC0203F09F075
:1006E0004FC0903F31F48091BD018F5F8093BD0179
:1006F0000DC09F3F71F49091E30190FDA8C081E08F
:100700009091BA01911180E08093BA010E94080390
:10071000D5C09E3F41F481E09091B901911180E0F4
:100720008093B901CBC09C3F39F48091BE018A35DA
:1007300008F0C4C0865F08C09D3F49F48091BE01A7
:100740008B3008F4BBC08A508093BE01B7C09B3F7A
:1007500041F481E09091BC01911180E08093BC0153
:10076000ADC0993F41F481E09091BB01911180E0CF
:100770008093BB01A3C09A3F09F0A0C00E941A0B4E
:10078000203A09F046C0923A49F148F4903A89F08B
:10079000913A09F093C080919F018F5F2AC0943AEB
:1007A00029F100F1953A09F089C080919F01845C9C
:1007B00020C08091A001882329F010929F011092FF
:1007C000A0017CC021E020939F0181E090E0909304
:1007D0009E0180939D012093A00170C080919F0194
:1007E0008B5F07C080919F01865F03C080919F014E
:1007F000825E80939F018091A00181115FC081E0A2
:100800008093A00180E69AEE90939E0180939D01D3
:1008100055C03091BB01311151C0E92FF0E02038B3
:1008200041F48093B801F093D001E093CF0182E0CE
:1008300046C08093B701EE0FFF1FEC50F140859149
:1008400094919093CC018093CB0184E038C093E5E0
:100850002091BB01211132C0A1EAB1E020E030E0DB
:100860004D91411109C0D901AF55BE4F8C93F9018B
:10087000ED52FE4F928320C02F5F3F4F2E30310547
:1008800079F74FB7F894A2EAB1E066ED71E0C5EDF3
:10089000D1E021EA31E05D91F90151939F01FB0123
:1008A0005191BF015993F1E0AF3ABF07A1F780938F
:1008B000AE019093E2014FBF81E001C080E0DF9183
:1008C000CF91089521EA31E0A5EDB1E090E0F90182
:1008D0002F5F3F4F4081481312C08FB7F8949E1B83
:1008E000292F2E0F2D3038F42181219311962C9130
:1008F00011972D93F5CF10821C928FBF19C09F5F67
:1009000011969E3021F7F9012F5F3F4F4081481328
:1009100011C010829E500024039401C0000C9A95CF
:10092000EAF7902D90958091D30198239093D3016D
:1009300081E008959F5F963131F79091B801981347
:1009400008C01092B8011092D0011092CF0182E03D
:1009500008959091B701981308C01092B7011092B2
:10096000CC011092CB0184E008959091BD019923B0
:1009700071F0E091BF01F091C001E80FF11DE49129
:10098000E03F29F491509093BD010E94080380E05C
:1009900008958DE2809393018091BB01E0919201D3
:1009A000811131C080919101F0E08823B9F0E355C5
:1009B000FF4FE491E0938A00E0919201F0E03596D8
:1009C000EF73FF27E355FF4FE491E0938800E09138
:1009D0009201F0E03A96EF73FF2716C03A96EF7354
:1009E000FF27E355FF4FE491E0938A00E0919201E5
:1009F000F0E03596EF73FF27E355FF4FE491E09366
:100A00008800E0919201F0E0E355FF4FE491E0931C
:100A10008C00809192018F5F8F738093920181117E
:100A200007C081E090919101911180E08093910144
:100A30000895882331F02F9A10929C0110929B0107
:100A4000089580919B0190919C019C012150310956
:100A500030939C0120939B01892B69F42F9904C04A
:100A60002F9A87EB9BE003C02F9881E090E0909352
:100A70009C0180939B010895CF93DF938823D1F04D
:100A800088EB9BE090939A018093990110929801D2
:100A900085E190E090939701809396018FEF80938A
:100AA000880080938A0080938C0080E092E0019718
:100AB000F1F731C1809198019FEF980F90939801C1
:100AC000811129C181E0809398018091A001882340
:100AD00009F45AC020919F0121113AC090919501CB
:100AE0008FEF890F8093950191111FC088E180934A
:100AF0009501809196019091970180FF03C010921B
:100B0000880006C090FF04C010928A0010928C00EA
:100B1000809196019091970180FB979597F9879521
:100B2000909397018093960109C0853039F48FEF37
:100B30008093880080938A0080938C008091E301E9
:100B400090919401981709F4E6C01092A001E3C0B7
:100B500080919D0190919E01019790939E018093B9
:100B60009D01892B89F48FEF820F80939F01811162
:100B700005C08091E3018093940106C080E69AEE5F
:100B800090939E0180939D01D091BB01D11173C0C0
:100B90009091E3018091BA0190FD02C08823C9F0D1
:100BA000882341F08091E30180FF04C01092BA01D4
:100BB0000E9408039091BA018091BE01992319F017
:100BC00064E6681B01C0682F80E20E942203C0E235
:100BD00001C0C0E09091E3018091BD0191FD02C090
:100BE0008823A9F0C064882329F084E69091BE018F
:100BF000891B01C080E09091E30191FF03C06091E7
:100C0000BE0101C060E0680F80E40E942203809171
:100C1000E3019091B90182FD02C09923B1F0C0684F
:100C20008091E30182FF05C084E62091BE01821B12
:100C300001C080E0992319F06091BE0101C060E01D
:100C4000680F80E80E94220302C0CC23A1F080EE4E
:100C50008C2786FF03C09FEF9093880085FF03C019
:100C60009FEF90938A0087FF03C08FEF80938C00E3
:100C700088EB9BE01CC08091990190919A010097AC
:100C8000F1F12091BC012223B9F0D11115C0883BAC
:100C90009B4009F040C08FEF8093880080938A00CA
:100CA00080938C008091990190919A010197909383
:100CB0009A01809399012FC0883B9B4039F48FEFB4
:100CC0008093880080938A0080938C0080919901A2
:100CD00090919A01019790939A0180939901892BA1
:100CE000D1F41092930110929201109291018FEF22
:100CF0008093880080938A0080938C000CC0809140
:100D000093019FEF980F90939301811104C0DF919D
:100D1000CF910C94C904DF91CF910895882319F0E5
:100D20001092900118C08AE78BB982E08A95F1F79A
:100D300093B196FB992790F981E0982780919001D3
:100D4000880F892B809390018FE78BB981E0909178
:100D500090019F3709F080E00895BF92CF92DF9213
:100D6000EF92FF920F931F93CF93DF938823A1F10C
:100D7000EDE9F2E0A0E0B1E08FEF9FE724912223BC
:100D800011F09C9301C08C931196319621E0A0390B
:100D9000B207A1F7E3EDF1E081E0E33EF80711F0DF
:100DA0001192FACFE1EAF1E021E0E73BF20711F01E
:100DB0001192FACF1092BD010E9408031092B8015F
:100DC0001092B7011092D0011092CF011092CC0175
:100DD0001092CB0187E053C08EE78BB985E08A95EE
:100DE000F1F700E010E0D12C20E0E22E21E0F22E1D
:100DF000B3B0BB0CB4FAB1F8B2FAB4F8B5FAB2F8C1
:100E0000B6FAB0F8B7FAB6F8B0FAB7F806B007FA1B
:100E1000B5F802FAB0F8F801E556FF4FE491EBB9E6
:100E2000E70199E0C92ECA9401F198819F3FD1F062
:100E30009F7B97FB990F97F9B0FA90F9903441F4A2
:100E4000CE018F5F90400E943B03D82A90EC09C0EE
:100E50009F3B39F4CE018F5F90400E946204D82AF4
:100E60009FE398832196B694DECF88E0E80EF11CCC
:100E70000F5F1F4F0231110509F0BACF8D2DDF91A1
:100E8000CF911F910F91FF90EF90DF90CF90BF9087
:100E90000895E0E8F0E08081837F8083E4E6F0E07D
:100EA0008081886080830895E4E6F0E08081877F18
:100EB0008083E0E8F0E0808188608083089516BC3C
:100EC00081E085BB82E085BBEEE6F0E08081826058
:100ED000808308951F920F920FB60F9211248F9363
:100EE00081E08093C9018F910F900FBE0F901F90EA
:100EF000189580E880BF94E09093640091E090930F
:100F0000650090E00FB6F8948093610090936100C3
:100F10000FBE84B98FEF85B980E687B986EF88B9AF
:100F200087E78AB98FE78BB985E085BD87E026E042
:100F300031E0815041F093B5916093BD26BD35BB42
:100F4000A89BFECFF6CF83E085BD8DE787BD84B536
:100F5000826084BD10928500109284008FEA809395
:100F6000880080938A0080938C0082E080938100C7
:100F700089EA80938000809181008860809381005D
:100F800088E28093BE0181E08093BC010895CF92F6
:100F9000DF92EF92FF920F931F93CF93DF9300D0D6
:100FA0001F92CDB7DEB78C018EEFE82E8091E8005E
:100FB000982F9570D9F382FD2FC0262F613408F049
:100FC00020E4F22E6801FA948FEFF816E9F041114F
:100FD00003C0F601808104C0413029F4F6018491F8
:100FE0008093F1000DC0423059F4C60129834B8330
:100FF0006A830E942A0C8093F1006A814B812981C7
:10100000FFEFCF1ADF0ADFCF020F111DE092E800D9
:10101000621B61F6203451F20F900F900F90DF9118
:10102000CF911F910F91FF90EF90DF90CF90089597
:1010300080EA8093D80086E089BD09B400FEFDCF28
:1010400080E88093D8001092E00089E08093E2006D
:101050001092D20181E08093CE0182E08093CA0198
:10106000789408959FB7F8948091C301882321F064
:101070002091C20181E0211180E09FBF08958091FD
:10108000C2018823C1F08091C1018823A1F089B5F4
:10109000826089BD09B400FEFDCF8091D8008F7DAC
:1010A0008093D8008091E00082608093E0001092ED
:1010B000C10181E0089580E008952FB7F894309140
:1010C000C301332361F03091C201311108C0409354
:1010D000E9003091E80035FF02C0FC0103C02FBFDA
:1010E00080E00895615020F081918093F100FACF63
:1010F0008AE18093E8002FBF81E008951F920F924C
:101100000FB60F9211248F939F938091E10010925C
:10111000E10083FF16C01092E90081E08093EB00AC
:101120001092EC0082E38093ED0088E08093F00061
:101130001092D2011092C2011092C1011092C3010B
:101140004FC09091C301992309F44AC080FF1AC08F
:101150009091E20090FF16C09091E2009E7D9093E6
:10116000E2009091E20090619093E2009091D800AB
:1011700090629093D80099B59D7F99BD91E090932E
:10118000C2011BC084FF19C09091E20094FF15C0FA
:1011900099B5926099BD09B400FEFDCF9091D80039
:1011A0009F7D9093D8009091E2009F7E9093E20003
:1011B0009091E20095629093E20085FF04C09091C7
:1011C000E20095FD06C082FF0BC08091E20082FF25
:1011D00007C08091E2008B7D8093E2001092C201F3
:1011E0009F918F910F900FBE0F901F9018951F9297
:1011F0000F920FB60F9211242F933F934F935F934B
:101200006F937F938F939F93AF93BF93CF93EF93FE
:10121000FF931092E9008091E80083FF3EC1909116
:10122000F1008091F1002091F1004091F10030E057
:10123000342B4091F1006091F10050E0562B609109
:10124000F100C091F10072EF7093E800863009F46C
:1012500017C1853059F48EEF8093E8008091E80043
:1012600080FFFCCF20682093E30041C1893041F525
:1012700091114CC08EEF8093E8002093C30181E967
:1012800094E041E04093E9009C012F5F3F4FFC0157
:1012900054915093EB00552361F0F9012491209370
:1012A000EC009C012D5F3F4FFC01329684918093AE
:1012B000ED004F5F453011F0C901E4CF8EE149C028
:1012C000883041F4903809F059C08091C30180936F
:1012D000F10086C081111AC0923851F44093E900A0
:1012E0008091EB0085FB882780F91092E90009C006
:1012F000903831F48091C101882311F082E001C05F
:1013000080E08093F1001092F1006AC0682F6D7F39
:101310006130A1F5923011F52115310509F093C026
:10132000642F6F777FEF760F743008F08CC09EEFDC
:101330009093E8006093E900833009F4AEC089E13E
:101340008093EB0081E090E0062E01C0880F0A94A4
:10135000EAF78093EA001092EA00C9C091110EC02A
:101360002130310509F06FC09EEF9093E80091E0C5
:10137000833009F090E09093C101B9C04115510547
:1013800009F064C0913AE1F4813059F48091D201BE
:1013900040E0811102C068E001C060E183ED91E0AE
:1013A0006CC0823029F440E061E081ED91E065C0DD
:1013B000833009F072C040E061E082ED91E05DC0F1
:1013C000913209F06AC0893079F48091E80082FF97
:1013D000FCCF8091F1008093E3018BEF8093E800D4
:1013E0008EEF8093E80083C08A3029F58EEF8093DA
:1013F000E800232F33272115310519F41092CD0170
:1014000017C08091D101882351F08091D101409182
:10141000CD0190E0841B91098217930714F081E0BD
:1014200005C08091CD01F22FF81B8F2F8093CD0145
:101430002093D1015CC08B3081F58EEF8093E80062
:101440002093D20154C04115510539F14130510565
:1014500021F5913A11F5813001F53327213031051D
:1014600029F440E063E08EEC91E007C022303105C2
:10147000A1F440E063E08AEC91E00E94C70737C026
:1014800081E494E0FC01A591B491A217B30749F05F
:10149000089674E081399707A9F781E28093EB0001
:1014A00026C0FC013296A591B491A417B50781F727
:1014B000009799F3E4E089359E0719F421E0209321
:1014C000D20170E07C2BFC01379654919B012227BE
:1014D000232B09F06FEFFC01369644910496FC0132
:1014E00085919491561708F0C8CF652FC6CFFF910C
:1014F000EF91CF91BF91AF919F918F917F916F911C
:101500005F914F913F912F910F900FBE0F901F90C1
:101510001895882369F1E3EDF1E091E0E33EF907E6
:1015200011F01192FACF282F30E021503109C90172
:1015300063E070E00E94190CFC01ED53FA4FE49156
:10154000E093C801C90163E070E00E94190C8C535C
:101550009A4FFC01859194919093C7018093C601A5
:1015600082E090E09093C5018093C40181E80895E2
:101570008091C4019091C5019C01215031093093A3
:10158000C5012093C401892B09F052C04091C601C6
:101590005091C701A091C801A15090E080E8FA01E4
:1015A000259134914E5F5F4FEFEFEA0FB901607FF5
:1015B000603E710561F427700024039401C0000CA3
:1015C0002A95EAF7202D81E8922BAE2FE8CF509391
:1015D000C7014093C601A093C8019093D30137FF80
:1015E00002C03F770AC035FF0DC03F703093D00175
:1015F0002093CF01826024E130E03093C501209335
:10160000C40112C036FF07C03F703093CC01209355
:10161000CB018460F0CF2093D50182E090E09093DD
:10162000C5018093C40181E8A11103C08F7708959B
:1016300080E8089510926E0081E08093E000F894B5
:1016400080E28093D80089B58D7F89BD88E10FB68F
:10165000F89480936000109260000FBE14B815B823
:1016600017B818B81AB81BB810926400109280000E
:101670001092810014BC15BC8FEF9FE70197F1F722
:10168000E3E0F0E089E080935700E491E670E63013
:1016900019F40C94003F09C0E43019F40C94003E96
:1016A00004C0E23011F40C94003C0C940038FFCFDD
:1016B0000E9479070E9418088DE78093D10183B7B3
:1016C000817F83BF0E945F0710E008E0FF24F3944E
:1016D00088E1E82EC8E1D0E09DE0D92E83B7816093
:1016E00083BF8091C901811102C08895FACF83B769
:1016F0008E7F83BF1092C9010E943208882309F4AB
:1017000068C0FF2021F180E090E80FB6F894909334
:101710006100809361000FBE81E00E9419050E9464
:1017200054070FB6F894A895C09360000FBED092EE
:10173000600081E00E94AD0681E00E943C0580913E
:10174000D1018093CD0110E008E0F12CC7CF002338
:1017500011F001500CC08091CD0181508093CD01DA
:10176000811104C08091D1018111116008E080E0F5
:101770000E943C0580E00E94AD06182B10FF13C0AC
:101780008091D201882311F060E101C068E043E05C
:1017900083ED91E00E945D08882329F01E7F8091EF
:1017A000D1018093CD0111FF08C044E063E08EECCD
:1017B00091E00E945D0881111D7F12FF08C044E086
:1017C00063E08AEC91E00E945D0881111B7FA8957F
:1017D00085CF8091C201882309F480CFF1101EC00B
:1017E00081E00E943C0581E00E94190581E00E9491
:1017F0008E060FB6F894E0926000109260000FBE63
:101800000E94490780E891E00FB6F8948093610048
:10181000909361000FBEFF24F39460CF80E00E949C
:10182000190580E00E948E068823A9F30E943F08D4
:10183000F2CF0024552704C0080E591F880F991FA6
:10184000009729F076956795B8F37105B9F7802D63
:10185000952F0895F999FECF92BD81BDF89A9927E9
:0818600080B50895F894FFCF54
:00000001FF
