:100000000C94E5020C9400030C9400030C94000380
:100010000C9400030C9400030C9400030C94000354
:100020000C9400030C9400030C9400030C946C08D3
:100030000C94E5080C9400030C9400030C9400034A
:100040000C9400030C9400030C9400030C945807C8
:100050000C9400030C9400030C9400030C94000314
:100060000C9400030C9400030C9400030C94000304
:100070000C940003B500B600B700CC00CD00E20040
:10008000E900EA0083018A0192019401210223021E
:1000900024022502260227022A021F476E7D66756A
:1000A0006574646C2F37277C176D0F3F7FFFFFFF50
:1000B000FFFFFFFFFFFFFFFFFFFDFBF9F7F3EDE59C
:1000C000DDD1C5B5A59583736346281405000514D5
:1000D000284663738395A5B5C5D1DDE5EDF3F7F942
:1000E000FBFDFFFFFFFFFFFFFFFFFFFFFF00E4003F
:1000F00000E048003E45582A3142004443E60000F3
:100100000000FFE246F063405B415E006100363074
:100110005A2E5D3F6011621C59235C0B5F05191755
:100120000922150A2100063C073B083D20001B530D
:10013000163A1A641F001D2B043514291E510000A5
:10014000004C002C004F000000490000000000009F
:10015000E7000000000000E1E500000000500000A2
:10016000004A00524D0000E30000000000000000C3
:10017000004B00004E54002F575613552700F00037
:1001800000E0C40000F9582A3181000082E6000036
:10019000000047E2FAF063005B005E006100363069
:1001A0005A2E5D006000620059005C005F00000094
:1001B00000000000000000000000000000000053EC
:1001C000000000640000002B0000002900FD00007A
:1001D00000FB002C00C0000000C100000000000077
:1001E000E7000000000000E1E500000000C10000A1
:1001F00000C000FCC50000E300000000000000009B
:1002000000C60000C754002F575600556200F0008A
:1002100000E0C400C4C6282A31FE00C7C5E60000BD
:10022000000053E246F037C10FC0120026003630FE
:100230000E2E0CC22511C91C0DA5180B24CD1917A3
:1002400009A2150A2100CA3C073B083DA4001B393E
:10025000163A1A641F001D2BC83514A0A14E0000C9
:1002600000C2002C004D000000C50000000000008E
:10027000FE000000000000E1E5000000004A000070
:1002800000C1004BC00000FE0000000000000000A4
:1002900000C60000C738002F332D1334A300E4003C
:1002A00000E048003E45282A3142004443E6000071
:1002B0000000FFE246F037400F41120026003630C2
:1002C0000E2E0C3F2511101C0D23180B2405191799
:1002D0000922150A2100063C073B083D20001B3976
:1002E000163A1A641F001D2B043514291E510000F4
:1002F000004C002C004F00000049000000000000EE
:10030000E7000000000000E1E500000000500000F0
:10031000004A00524D0000E3000000000000000011
:10032000004B00004E38002F332D13342709023BB9
:1003300000020100A01909040000010301010009E5
:100340002111010001223D00070583030800020975
:100350000401000103000000092111010001223005
:10036000000705840303000A120100020000004098
:1003700016250400000101020001020336034B00B0
:100380006500790062006F00610072006400200067
:10039000530047004B002D00340030003000300087
:1003A0002D0047004B0043004C0031002D0055004C
:1003B0005300120343004D002000530074006F00EF
:1003C00072006D000403090405010980A101850183
:1003D000158125B7198129B7751095018100C005D0
:1003E0000C0901A10185021501269C0219012A9C14
:1003F00002751095018100C005010906A101750172
:100400009508050719E029E71500250181029501E6
:1004100075088103950575010508190129059102E3
:100420009503910395067508150025DD050719004C
:1004300029DD8100C00001000068030112000200F4
:10044000002D03013B002100003F030109002200B1
:1004500000F803013D0021010058030109002201B9
:1004600000C803013000030000C4030104010309B4
:1004700004B2030112020309047C030136030309D9
:10048000047A030102000001C10601C1060C000943
:10049000002C00E10026002C0000002C00E10027C9
:1004A000002800E1002F002800E100300052000089
:1004B00000520000004F0000004F0000004F0000FD
:1004C000004F000000280008000F00160008002858
:1004D00000E1002F002800E1003000520028000059
:1004E000000900120015002C00E10026002C00334A
:1004F00000000033002C00E10027002800E1002F5D
:10050000002800E100300052000000520000004FBF
:100510000000004F0000004F0000004F0000004F9F
:100520000000004F000000070012002800E1002F2B
:10053000002800E100300028001A000B000C000F1A
:100540000008002C00E10026002C0000002C00E137
:100550000027002C00330050000000500000005025
:100560000000005000000062000000620000003542
:10057000000000E883190012000C0006000800E1EA
:10058000002D0016000B0012001A00E1002D0010D3
:100590000018001700080028000000F4811900125C
:1005A000000C0006000800E1002D001000180017E4
:1005B0000008002C0000001C8D040EC50423E1047B
:1005C000202705046705246F050011241FBECFEF07
:1005D000D4E0DEBFCDBF14BE88E10FB6F89480939F
:1005E0006000109260000FBE11E0A0E0B1E001C019
:1005F0001D92A43DB107E1F70E94390B0C940D0C3C
:100600000C9400008091B501882341F0813019F4E9
:100610008CE092E00CC08CE791E009C08091B201BF
:10062000882319F08CEE90E002C08CE992E0909360
:10063000B8018093B7010895613520F4962F990F82
:10064000909509C094EB961B20E530E0261B3109FC
:10065000220F220F920F86FD9093880085FD9093C4
:100660008A0087FD90938C000895CF93DF93E091EB
:10067000B701F091B801E80FF11D9491992309F4A5
:1006800017C197FFDFC0292F207F203E09F5209159
:10069000B30121110DC12091B101222329F0292F8D
:1006A0002B7F233E09F404C19770A92FB0E0AF550A
:1006B000BE4F16968C930024039401C0000C9A95AB
:1006C000EAF7902D8091CB01982B9093CB01EEC04F
:1006D000203F09F04FC0903F31F48091B5018F5F0A
:1006E0008093B5010DC09F3F71F49091D30190FDAF
:1006F000A8C081E09091B201911180E08093B20195
:100700000E940203D5C09E3F41F481E09091B10167
:10071000911180E08093B101CBC09C3F39F480916E
:10072000B6018A3508F0C4C0865F08C09D3F49F411
:100730008091B6018B3008F4BBC08A508093B6011B
:10074000B7C09B3F41F481E09091B401911180E0EA
:100750008093B401ADC0993F41F481E09091B30121
:10076000911180E08093B301A3C09A3F09F0A0C02B
:100770000E94FB0A203A09F046C0923A49F148F437
:10078000903A89F0913A09F093C080919F018F5F70
:100790002AC0943A29F100F1953A09F089C0809174
:1007A0009F01845C20C08091A001882329F01092D1
:1007B0009F011092A0017CC021E020939F0181E065
:1007C00090E090939E0180939D012093A00170C0C2
:1007D00080919F018B5F07C080919F01865F03C05E
:1007E00080919F01825E80939F018091A001811181
:1007F0005FC081E08093A00180E69AEE90939E0115
:1008000080939D0155C03091B301311151C0E92F42
:10081000F0E0203841F48093B001F093C801E093F8
:10082000C70182E046C08093AF01EE0FFF1FEC507E
:10083000F140859194919093C4018093C30184E029
:1008400038C093E52091B301211132C0A1EAB1E093
:1008500020E030E04D91411109C0D901AF55BE4FA4
:100860008C93F901E553FE4F928320C02F5F3F4FD9
:100870002630310579F74FB7F894A2EAB1E06EEC73
:1008800071E0CDECD1E021EA31E05D91F9015193C5
:100890009F01FB015191BF015993F1E0A73ABF07B6
:1008A000A1F78093A6019093D2014FBF81E001C0D0
:1008B00080E0DF91CF91089521EA31E0ADECB1E025
:1008C00090E0F9012F5F3F4F4081481312C08FB76E
:1008D000F8949E1B292F2E0F253038F42181219367
:1008E00011962C9111972D93F5CF10821C928FBFEA
:1008F00019C09F5F1196963021F7F9012F5F3F4F86
:100900004081481311C0108296500024039401C006
:10091000000C9A95EAF7902D90958091CB01982341
:100920009093CB0181E008959F5F9E3031F79091C5
:10093000B001981308C01092B0011092C801109233
:10094000C70182E008959091AF01981308C01092FA
:10095000AF011092C4011092C30184E008959091F8
:10096000B501992371F0E091B701F091B801E80F5A
:10097000F11DE491E03F29F491509093B5010E945C
:10098000020380E008958DE2809393018091B3018A
:10099000E0919201811131C080919101F0E08823B2
:1009A000B9F0E355FF4FE491E0938A00E0919201A2
:1009B000F0E03596EF73FF27E355FF4FE491E093A6
:1009C0008C00E0919201F0E03A96EF73FF2716C099
:1009D0003A96EF73FF27E355FF4FE491E0938A00C7
:1009E000E0919201F0E03596EF73FF27E355FF4F5A
:1009F000E491E0938C00E0919201F0E0E355FF4F29
:100A0000E491E0938800809192018F5F8F738093CF
:100A10009201811107C081E090919101911180E0D4
:100A2000809391010895882331F0469A10929C0199
:100A300010929B01089580919B0190919C019C01D3
:100A40002150310930939C0120939B01892B69F43B
:100A5000469904C0469A87EB9BE003C0469881E024
:100A600090E090939C0180939B0108951F93CF93F6
:100A7000DF938823D1F088EB9BE090939A018093D9
:100A800099011092980185E190E0909397018093ED
:100A900096018FEF8093880080938A0080938C006A
:100AA00080E092E00197F1F721C1809198019FEFDA
:100AB000980F90939801811119C181E0809398015A
:100AC0008091A001882309F45AC020919F0121112F
:100AD0003AC0909195018FEF890F80939501911104
:100AE0001FC088E1809395018091960190919701B4
:100AF00080FF03C010928C0006C090FF04C01092CB
:100B0000880010928A00809196019091970180FB55
:100B1000979597F98795909397018093960109C0CF
:100B2000853039F48FEF8093880080938A0080931A
:100B30008C008091D30190919401981709F4D6C04C
:100B40001092A001D3C080919D0190919E010197C8
:100B500090939E0180939D01892B89F48FEF820FE2
:100B600080939F01811105C08091D30180939401EE
:100B700006C080E69AEE90939E0180939D011091AD
:100B8000B301111160C0D091B501D130C1F0D230A4
:100B900061F48091D30180FD02C0C0E001C0C0E2D9
:100BA0008091D30182FF18C015C08091B2018823C3
:100BB00031F08091D30180FD97C0C0E40FC08091D7
:100BC000D30181FD02C0C0E001C0C0E28091D30129
:100BD00080FF02C0C06402C0CC2329F06091B6013E
:100BE0008C2F0E941C039091B101911102C0DD2352
:100BF000A1F0C068DD2329F084E62091B601821BB4
:100C000001C080E0992319F06091B60101C060E055
:100C1000680F80E80E941C0302C0CC23A1F080EE84
:100C20008C2786FF03C09FEF9093880085FF03C049
:100C30009FEF90938A0087FF03C08FEF80938C0013
:100C400088EB9BE01CC08091990190919A010097DC
:100C5000F1F12091B4012223B9F0111115C0883BA4
:100C60009B4009F043C08FEF8093880080938A00F7
:100C700080938C008091990190919A0101979093B3
:100C80009A018093990132C0883B9B4039F48FEFE1
:100C90008093880080938A0080938C0080919901D2
:100CA00090919A01019790939A0180939901892BD1
:100CB000E9F41092930110929201109291018FEF3A
:100CC0008093880080938A0080938C000FC080916D
:100CD00093019FEF980F90939301811107C0DF91CB
:100CE000CF911F910C94C304C0E678CFDF91CF91D0
:100CF0001F910895882319F01092900118C08FE277
:100D00008BB982E08A95F1F793B193FB992790F91B
:100D100081E0982780919001880F892B8093900122
:100D20008FE78BB981E0909190019F3709F080E0C7
:100D30000895BF92CF92DF92EF92FF920F931F938D
:100D4000CF93DF938823A1F1EDE9F2E0A0E0B1E0D9
:100D50008FEF9FE72491222311F09C9301C08C9385
:100D60001196319621E0A039B207A1F7EBECF1E042
:100D700081E0E33DF80711F01192FACFE1EAF1E0EA
:100D800021E0EF3AF20711F01192FACF1092B5017B
:100D90000E9402031092B0011092AF011092C8019C
:100DA0001092C7011092C4011092C30187E055C090
:100DB0008FE18BB985E08A95F1F700E010E0D12C46
:100DC00020E0E22E21E0F22EB3B0BB0CB1FAB0F875
:100DD000B6FAB1F8B4FAB6F8B2FAB4F8B5FAB2F8AD
:100DE000B3FAB5F8B7FAB3F8B0FAB7F806B007FA3D
:100DF000B0F8F801E556FF4FE491EBB9E70199E04F
:100E0000C92ECA9401F198819F3FD1F09F7B97FB37
:100E1000990F97F9B0FA90F9903441F4CE018F5FB1
:100E200090400E943503D82A90EC09C09F3B39F4CA
:100E3000CE018F5F90400E945C04D82A9FE3988384
:100E40002196B694DECF88E0E80EF11C0F5F1F4FAD
:100E50000231110509F0B8CF8D2DDF91CF911F918F
:100E60000F91FF90EF90DF90CF90BF900895E0E852
:100E7000F0E080818F738083E4E6F0E08081886019
:100E800080830895E4E6F0E08081877F8083E0E856
:100E9000F0E0808180688083089516BC81E085BB86
:100EA00082E085BBEEE6F0E0808182608083089579
:100EB0001F920F920FB60F9211248F9381E08093AF
:100EC000C1018F910F900FBE0F901F90189580E871
:100ED00080BF94E09093640091E09093650090E06F
:100EE0000FB6F89480936100909361000FBE84B9AF
:100EF0008FEF85B980E687B986EF88B98BE78AB925
:100F00008FE78BB985E085BD87E026E031E0815031
:100F100041F093B5916093BD26BD35BBA89BFECF34
:100F2000F6CF83E085BD8DE787BD84B5826084BD43
:100F300010928500109284008BEE8093880080933D
:100F40008A0080938C0082E08093810089EA8093FC
:100F50008000809181008860809381008AE0809386
:100F6000B60181E08093B4010895CF92DF92EF92B1
:100F7000FF920F931F93CF93DF9300D01F92CDB7B3
:100F8000DEB78C018EEFE82E8091E800982F9570E7
:100F9000D9F382FD2FC0262F613408F020E4F22E11
:100FA0006801FA948FEFF816E9F0411103C0F601D9
:100FB000808104C0413029F4F60184918093F100CE
:100FC0000DC0423059F4C60129834B836A830E94C5
:100FD000050C8093F1006A814B812981FFEFCF1AC4
:100FE000DF0ADFCF020F111DE092E800621B61F6FD
:100FF000203451F20F900F900F90DF91CF911F91FD
:101000000F91FF90EF90DF90CF90089580EA80934A
:10101000D80086E089BD09B400FEFDCF80E880934A
:10102000D8001092E00089E08093E20081E0809394
:10103000CA018093C60182E08093C201789408952A
:101040009FB7F8948091BB01882321F02091BA01C9
:1010500081E0211180E09FBF08958091BA0188232B
:10106000C1F08091B9018823A1F089B5826089BD62
:1010700009B400FEFDCF8091D8008F7D8093D80009
:101080008091E00082608093E0001092B90181E0DD
:10109000089580E008952FB7F8943091BB01332371
:1010A00061F03091BA01311108C04093E9003091EC
:1010B000E80035FF02C0FC0103C02FBF80E00895A7
:1010C000615020F081918093F100FACF8AE1809302
:1010D000E8002FBF81E008951F920F920FB60F9284
:1010E00011248F939F938091E1001092E10083FF80
:1010F00016C01092E90081E08093EB001092EC00A2
:1011000092E39093ED0098E09093F0008093CA01F1
:101110001092BA011092B9011092BB014FC0909188
:10112000BB01992309F44AC080FF1AC09091E200E4
:1011300090FF16C09091E2009E7D9093E200909106
:10114000E20090619093E2009091D80090629093B9
:10115000D80099B59D7F99BD91E09093BA011BC0CD
:1011600084FF19C09091E20094FF15C099B5926078
:1011700099BD09B400FEFDCF9091D8009F7D90935A
:10118000D8009091E2009F7E9093E2009091E2005F
:1011900095629093E20085FF04C09091E20095FD76
:1011A00006C082FF0BC08091E20082FF07C08091E1
:1011B000E2008B7D8093E2001092BA019F918F91A3
:1011C0000F900FBE0F901F9018951F920F920FB6A1
:1011D0000F9211242F933F934F935F936F937F93BD
:1011E0008F939F93AF93BF93CF93EF93FF931092FF
:1011F000E9008091E80083FF36C13091F100209131
:10120000F1008091F1004091F10090E0942B409129
:10121000F1006091F10050E0562B6091F100C09117
:10122000F10072EF7093E800263009F40EC125300A
:1012300059F42EEF2093E8002091E80020FFFCCF26
:1012400080688093E30034C1293041F531114CC0EE
:101250009EEF9093E8008093BB0185E894E041E025
:101260004093E9009C012F5F3F4FFC015491509344
:10127000EB00552361F0F90124912093EC009C01CF
:101280002D5F3F4FFC01329684918093ED004F5FBC
:10129000453011F0C901E4CF8EE148C0283041F457
:1012A000303809F058C08091BB018093F1007FC0B5
:1012B00021111AC0323851F44093E9008091EB00BB
:1012C00085FB882780F91092E90009C0303831F495
:1012D0008091B901882311F082E001C080E0809301
:1012E000F1001092F10063C0622F6D7F613099F5BB
:1012F000323009F5009709F08CC0642F6F777FEFCB
:10130000760F743008F085C08EEF8093E80060930C
:10131000E900233009F4A7C089E18093EB0081E064
:1013200090E0062E01C0880F0A94EAF78093EA0045
:101330001092EA00BDC031110EC08130910509F054
:1013400068C08EEF8093E80081E0233009F080E0F0
:101350008093B901ADC04115510509F05DC0313A26
:10136000B1F4213029F440E068E08BEC91E06AC0F0
:10137000223029F440E061E089EC91E063C0233041
:1013800009F071C040E061E08AEC91E05BC031326D
:1013900009F069C0293079F48091E80082FFFCCF20
:1013A0008091F1008093D3018BEF8093E8008EEF62
:1013B0008093E8007DC02A3021F52EEF2093E800CD
:1013C000892F9927009719F41092C50117C0209111
:1013D000C901222351F02091C9014091C50130E09B
:1013E000241B31092817390714F021E005C020918A
:1013F000C501F82FF21B2F2F2093C5018093C9013F
:1014000057C02B3081F59EEF9093E8008093CA017E
:101410004FC04115510539F14130510521F5313A9F
:1014200011F5213001F599278130910529F440E02B
:1014300063E086EC91E006C00297A9F440E063E027
:1014400082EC91E00E94B50733C025E334E0F90156
:10145000A591B491A817B90751F0285F3F4F74E0E8
:1014600025383707A1F781E28093EB0021C0F9010D
:101470003296A591B491A417B50779F721153105D6
:1014800091F370E07C2BF90137965491CB018827BA
:10149000892B09F06FEFF901369644912C5F3F4F8D
:1014A000F90185919491561708F0CCCF652FCACFDA
:1014B000FF91EF91CF91BF91AF919F918F917F91CC
:1014C0006F915F914F913F912F910F900FBE0F90B1
:1014D0001F901895882369F1EBECF1E091E0E33D72
:1014E000F90711F01192FACF282F30E0215031097D
:1014F000C90163E070E00E94F40BFC01E954FA4F6B
:10150000E491E093C001C90163E070E00E94F40B34
:1015100088549A4FFC01859194919093BF018093D8
:10152000BE0184E090E09093BD018093BC0181E80E
:1015300008958091BC019091BD019C012150310919
:101540003093BD012093BC01892B09F052C040911A
:10155000BE015091BF01A091C001A15090E080E870
:10156000FA01259134914E5F5F4FEFEFEA0FB90119
:10157000607F603E710561F427700024039401C010
:10158000000C2A95EAF7202D81E8922BAE2FE8CFA8
:101590005093BF014093BE01A093C0019093CB0133
:1015A00037FF02C03F770AC035FF0DC03F70309350
:1015B000C8012093C701826024E130E03093BD016F
:1015C0002093BC0112C036FF07C03F703093C401A6
:1015D0002093C3018460F0CF2093CD0184E090E09C
:1015E0009093BD018093BC0181E8A11103C08F7766
:1015F000089580E8089510926E0081E08093E000E5
:10160000F89480E28093D80089B58D7F89BD88E108
:101610000FB6F89480936000109260000FBE14B86B
:1016200015B817B818B81AB81BB810926400109201
:1016300080001092810014BC15BC8FEF9FE70197CA
:10164000F1F7E3E0F0E089E080935700E491E67081
:10165000E63019F40C94003F09C0E43019F40C94FE
:10166000003E04C0E23011F40C94003C0C940038AD
:10167000FFCF0E9467070E9406088DE78093C9018B
:1016800083B7817F83BF0E944D0710E008E0FF24ED
:10169000F39488E1E82EC8E1D0E09DE0D92E83B72D
:1016A000816083BF8091C101811102C08895FACF0A
:1016B00083B78E7F83BF1092C1010E9420088823C8
:1016C00009F462C0FF2021F180E090E80FB6F894A1
:1016D00090936100809361000FBE81E00E9413052A
:1016E0000E9442070FB6F894A895C09360000FBE01
:1016F000D092600081E00E94990681E00E94360548
:101700008091C9018093C50110E008E0F12CC7CF9A
:10171000002311F001500CC08091C50181508093CD
:10172000C501811104C08091C9018111116008E0D7
:1017300080E00E94360580E00E949906182B10FF79
:101740000DC043E068E08BEC91E00E944B088823D9
:1017500029F01E7F8091C9018093C50111FF08C047
:1017600044E063E086EC91E00E944B0881111D7F0C
:1017700012FF08C044E063E082EC91E00E944B0855
:1017800081111B7FA8958BCF8091BA01882309F422
:1017900086CFF1101EC081E00E94360581E00E94D4
:1017A000130581E00E947A060FB6F894E09260007B
:1017B000109260000FBE0E94370780E891E00FB6DC
:1017C000F89480936100909361000FBEFF24F3941E
:1017D00066CF80E00E94130580E00E947A0688238D
:1017E000A9F30E942D08F2CF0024552704C0080E4B
:1017F000591F880F991F009729F076956795B8F3C0
:101800007105B9F7802D952F0895F999FECF92BDF6
:0E18100081BDF89A992780B50895F894FFCF0E
:00000001FF
