:100000000C94E4020C94FF020C94FF020C94FF0287
:100010000C94FF020C94FF020C94FF020C94FF025C
:100020000C94FF020C94FF020C94FF020C94BC0889
:100030000C9435090C94FF020C94FF020C94FF02FF
:100040000C94FF020C94FF020C94FF020C94AA077C
:100050000C94FF020C94FF020C94FF020C94FF021C
:100060000C94FF020C94FF020C94FF020C94FF020C
:100070000C94FF02B500B600B700CC00CD00E20042
:10008000E900EA0083018A0192019401210223021E
:1000900024022502260227022A021747647D666E83
:1000A000756D657C1F272F740F6C073F7FFFFFFF67
:1000B000FFFFFFFFFFFFFFFFFFFDFBF9F7F3EDE59C
:1000C000DDD1C5B5A59583736346281405000514D5
:1000D000284663738395A5B5C5D1DDE5EDF3F7F942
:1000E000FBFDFFFFFFFFFFFFFFFFFFFFFF00E4003F
:1000F00000E048003E45582A3142004443E60000F3
:100100000000FFE246F063405B415E006100363074
:100110005A2E5D3F6011621C59235C0B5F05191755
:100120000922150A2100063C073B083D20001B530D
:10013000163A1A641F001D2B043514291E510000A5
:10014000004C002C004F000000490000000000009F
:10015000E7000000000000E1E500000000500000A2
:10016000004A00524D0000E30000000000000000C3
:10017000004B00004E54002F575613552700F00037
:1001800000E0C40000F9582A3181000082E6000036
:10019000000047E2FAF063005B005E006100363069
:1001A0005A2E5D006000620059005C005F00000094
:1001B00000000000000000000000000000000053EC
:1001C000000000640000002B0000002900FD00007A
:1001D00000FB002C00C0000000C100000000000077
:1001E000E7000000000000E1E500000000C10000A1
:1001F00000C000FCC50000E300000000000000009B
:1002000000C60000C754002F575600556200F0008A
:1002100000E0C400C4C6282A31FE00C7C5E60000BD
:10022000000053E246F037C10FC0120026003630FE
:100230000E2E0CC22511C91C0DA5180B24CD1917A3
:1002400009A2150A2100CA3C073B083DA4001B393E
:10025000163A1A641F001D2BC83514A0A14E0000C9
:1002600000C2002C004D000000C50000000000008E
:10027000FE000000000000E1E5000000004A000070
:1002800000C1004BC00000FE0000000000000000A4
:1002900000C60000C738002F332D1334A300E4003C
:1002A00000E048003E45282A3142004443E6000071
:1002B0000000FFE246F037400F41120026003630C2
:1002C0000E2E0C3F2511101C0D23180B2405191799
:1002D0000922150A2100063C073B083D20001B3976
:1002E000163A1A641F001D2B043514291E510000F4
:1002F000004C002C004F00000049000000000000EE
:10030000E7000000000000E1E500000000500000F0
:10031000004A00524D0000E3000000000000000011
:10032000004B00004E38002F332D13342709023BB9
:1003300000020100A01909040000010301010009E5
:100340002111010001223D0007058303100001096E
:100350000401000103000000092111010001223005
:10036000000705840303000A120100020000004098
:10037000D904181802010102000102032E034600ED
:1003800049004C0043004F0020004D0061006A000E
:100390006500730074006F00750063006800200042
:1003A0003200200054004B004C0018034400490068
:1003B0004100540045004300200043006F007200DC
:1003C00070000403090405010980A101850115815C
:1003D00025B7198129B7751095018100C0050C0951
:1003E00001A10185021501269C0219012A9C0275B2
:1003F0001095018100C005010906A101750195084C
:10040000050719E029E71500250181029501750806
:1004100081039505750105081901290591029503C8
:100420009103950E7508150025DD0507190029DDD6
:100430008100C00001000068030112000200002DCD
:1004400003013B002100003F03010900220000F6E8
:1004500003013D002101005803010900220100C6EB
:1004600003013000030000C203010401030904AAD0
:10047000030118020309047C03012E030309047A13
:10048000030102000001C11601C1060C0009002C85
:1004900000E10026002C0000002C00E100270028CD
:1004A00000E1002F002800E100300052000000525F
:1004B0000000004F0000004F0000004F0000004F00
:1004C000000000280008000F00160008002800E1C6
:1004D000002F002800E10030005200280000000931
:1004E00000120015002C00E10026002C0033000053
:1004F0000033002C00E10027002800E1002F002835
:1005000000E100300052000000520000004F0000E7
:10051000004F0000004F0000004F0000004F00009F
:10052000004F000000070012002800E1002F002803
:1005300000E100300028001A000B000C000F00083A
:10054000002C00E10026002C0000002C00E1002718
:10055000002C00330050000000500000005000004C
:100560000050000000620000006200000035000042
:1005700000E883190012000C0006000800E1002DBD
:100580000016000B0012001A00E1002D00100018E8
:10059000001700080028000000F481190012000C68
:1005A0000006000800E1002D0010001800170008E8
:1005B000002C0000001C8B040EC30423DF04202544
:1005C00005046505246D050011241FBECFEFD4E09E
:1005D000DEBFCDBF14BE88E10FB6F89480936000F3
:1005E000109260000FBE12E0A0E0B1E001C01D92C9
:1005F000A437B107E1F70E94960B0C94700C0C9491
:10060000000080914D02882341F0813019F48CE084
:1006100092E00CC08CE791E009C080914A028823E7
:1006200019F08CEE90E002C08CE992E090935002B9
:1006300080934F020895CF93DF93E0914F02F091A2
:100640005002E80FF11D9491992309F417C197FF07
:10065000DFC0292F207F203E09F520914B02211178
:100660000DC120914902222329F0292F2B7F233EFF
:1006700009F404C19770A92FB0E0AF5CBD4F1E967E
:100680008C930024039401C0000C9A95EAF7902DF6
:1006900080916302982B90936302EEC0203F09F093
:1006A0004FC0903F31F480914D028F5F80934D0297
:1006B0000DC09F3F71F49091730290FDA8C081E03E
:1006C00090914A02911180E080934A020E940103B6
:1006D000D5C09E3F41F481E090914902911180E0A4
:1006E00080934902CBC09C3F39F480914E028A35F9
:1006F00008F0C4C0865F08C09D3F49F480914E0257
:100700008B3008F4BBC08A5080934E02B7C09B3F29
:1007100041F481E090914C02911180E080934C0271
:10072000ADC0993F41F481E090914B02911180E07E
:1007300080934B02A3C09A3F09F0A0C00E94580BBF
:10074000203A09F046C0923A49F148F4903A89F0CB
:10075000913A09F093C080912F028F5F2AC0943A9A
:1007600029F100F1953A09F089C080912F02845C4B
:1007700020C080913002882329F010922F0210921D
:1007800030027CC021E020932F0281E090E0909322
:100790002E0280932D022093300270C080912F0290
:1007A0008B5F07C080912F02865F03C080912F026C
:1007B000825E80932F028091300281115FC081E0C0
:1007C0008093300280E69AEE90932E0280932D0261
:1007D00055C030914B02311151C0E92FF0E0203863
:1007E00041F480934802F0936002E0935F0282E05C
:1007F00046C080934702EE0FFF1FEC50F1408591F9
:10080000949190935C0280935B0284E038C093E5FE
:1008100020914B02211132C0A1E3B2E020E030E090
:100820004D91411109C0D901AF5CBD4F8C93F901C5
:10083000ED59FD4F928320C02F5F3F4F2E30310581
:1008400079F74FB7F894A2E3B2E066E672E0C5E646
:10085000D2E021E332E05D91F90151939F01FB0168
:100860005191BF015993F2E0AF33BF07A1F78093D5
:100870003E02909372024FBF81E001C080E0DF91A1
:10088000CF91089521E332E0A5E6B2E090E0F901CE
:100890002F5F3F4F4081481312C08FB7F8949E1BC3
:1008A000292F2E0F2D3038F42181219311962C9170
:1008B00011972D93F5CF10821C928FBF19C09F5FA7
:1008C00011969E3021F7F9012F5F3F4F4081481369
:1008D00011C010829E500024039401C0000C9A9510
:1008E000EAF7902D9095809163029823909363028C
:1008F00081E008959F5F963131F7909148029813F7
:1009000008C0109248021092600210925F0282E0CA
:10091000089590914702981308C0109247021092D0
:100920005C0210925B0284E0089590914D0299233D
:1009300071F0E0914F02F0915002E80FF11DE49147
:10094000E03F29F4915090934D020E94010380E012
:1009500008958DE28093230280914B02E091220260
:1009600081111BC080912102F0E0882361F0E355E2
:10097000FF4FE491E0938A00E0912202F0E0379685
:10098000EF73FF270BC03796EF73FF27E355FF4F39
:10099000E491E0938A00E0912202F0E0E355FF4FFA
:1009A000E491E0938800809122028F5F8F7380939F
:1009B0002202811107C081E090912102911180E013
:1009C000809321020895882331F0469A10922C02D8
:1009D00010922B02089580912B0290912C029C0181
:1009E0002150310930932C0220932B02892B69F47A
:1009F000469904C0469A87EB9BE003C0469881E085
:100A000090E090932C0280932B0208958823C1F0EC
:100A100088EB9BE090932A0280932902109228028F
:100A200085E190E090932702809326028FEF8093D8
:100A3000880080938A0080E092E00197F1F70895A2
:100A4000809128029FEF980F90932802811130C166
:100A500081E08093280280913002882309F455C0F8
:100A600020912F02211135C0909125028FEF890F1F
:100A70008093250291111CC088E18093250280910A
:100A800026029091270280FF03C010928A0003C0C3
:100A900090FD10928800809126029091270280FBA1
:100AA000979597F98795909327028093260207C020
:100AB000853029F48FEF8093880080938A0080919D
:100AC000730290912402981709F4F2C01092300238
:100AD000089580912D0290912E02019790932E02FD
:100AE00080932D02892B89F48FEF820F80932F0240
:100AF000811105C0809173028093240206C080E6B4
:100B00009AEE90932E0280932D0280914B028111D8
:100B100086C09091730280914A0291FD06C0909127
:100B2000730290FD02C08823A1F1882341F08091D7
:100B3000730280FF04C010924A020E940103809158
:100B4000730280FD04C080914A02882329F084E664
:100B500090914E02891B01C080E09091730291FF39
:100B600003C030914E0201C030E0380F313520F41F
:100B7000232F220F209509C024EB231B80E590E052
:100B8000831B9109880F880F280F20938A0030E279
:100B900001C030E09091730280914D0292FD06C039
:100BA000811104C090914902992341F13064882356
:100BB00029F084E690914E02891B01C080E090915B
:100BC000730292FD04C090914902992319F040915B
:100BD0004E0201C040E0480F413520F4242F220F7F
:100BE000209509C024EB241B80E590E0841B91092B
:100BF000880F880F280F2093880002C0332379F0D4
:100C000080E6832786FF03C09FEF9093880085FFCF
:100C100003C08FEF80938A0088EB9BE01BC080911C
:100C2000290290912A020097C9F120914C022223B7
:100C3000B1F020914B02211112C0883B9B40C1F5BD
:100C40008FEF8093880080938A0080912902909191
:100C50002A02019790932A02809329020895883BE3
:100C60009B4029F48FEF8093880080938A008091C5
:100C7000290290912A02019790932A0280932902D7
:100C8000892BB1F4109223021092220210922102B9
:100C90008FEF8093880080938A00089580912302CB
:100CA0009FEF980F90932302811102C00C94A90426
:100CB0000895882319F01092200218C08FE18BB993
:100CC00082E08A95F1F793B193FB992790F981E03F
:100CD000982780912002880F892B809320028FE72C
:100CE0008BB981E0909120029F3709F080E0089550
:100CF0006F927F928F929F92AF92BF92CF92DF922C
:100D0000EF92FF920F931F93CF93DF931F92CDB774
:100D1000DEB78823B9F1EDE9F2E0A0E0B1E090E8B8
:100D20008FEF2491222311F01C9201C09C93119605
:100D30008C9311971296319622E0A032B20789F770
:100D4000E3E6F2E082E0E337F80711F01192FACF20
:100D5000E1E3F2E022E0E734F20711F01192FACF7A
:100D600010924D020E940103109248021092470215
:100D70001092600210925F0210925C0210925B026D
:100D800087E0B7C087E18BB985E08A95F1F7E12C60
:100D9000F12C912C00E011E0CC24C394F3E0BF2EA1
:100DA000A2E0AA2E002483B185FB00F882FB85F91E
:100DB00084FB82F981FB84F987FB81F980FB87F949
:100DC00086FB80F983FB86F980FB83F98E7F80297F
:100DD000D82EF701E556FF4FE491EBB98091490217
:100DE0003801E9E08E2E882309F44CC08A9409F476
:100DF00075C0F301908197FD38C081818F71880F94
:100E00002D2D2170822B8183911104C080FD2DC076
:100E1000A08223C0913029F480FF27C0F301B08263
:100E20000BC0923089F4803219F4F301C0821DC0E6
:100E30008F31D9F4F3011082C3018E5F90409595F4
:100E400087950E94420410C08F3119F4F30110827B
:100E50000CC0803251F4F301C082C3018E5F904018
:100E6000959587950E941B03982AF2E06F0E711CDE
:100E7000D694BCCFF301808187FF07C0F2E06F0EEC
:100E8000711CD6948A94B1F729C091819F71990FF2
:100E90002D2D2170922B903269F481111CC0C082DB
:100EA00093012E5F304035952795822F99830E94BC
:100EB0001B030FC09F3179F4882369F0F30110827E
:100EC00093012E5F304035952795822F99830E949C
:100ED0004204982A9981F3019183D0CF005F1F4F7C
:100EE0002FEFE21AF20A82E1E816F10409F05ACF74
:100EF000892D0F90DF91CF911F910F91FF90EF906F
:100F0000DF90CF90BF90AF909F908F907F906F9029
:100F10000895E0E8F0E080818F738083E4E6F0E0FC
:100F20008081886080830895E4E6F0E08081877F97
:100F30008083E0E8F0E0808180688083089516BCBB
:100F400081E085BB82E085BBEEE6F0E080818260D7
:100F5000808308951F920F920FB60F9211248F93E2
:100F600081E0809359028F910F900FBE0F901F90D8
:100F7000189580E880BF94E09093640091E090938E
:100F8000650090E00FB6F894809361009093610043
:100F90000FBE14B88FEF85B980E687B986EF88B9A0
:100FA0008BE78AB98FE78BB985E085BD87E026E0BE
:100FB00031E0815041F093B5916093BD26BD35BBC2
:100FC000A89BFECFF6CF83E085BD8DE787BD84B5B6
:100FD000826084BD10928500109284008BEE809315
:100FE000880080938A0082E08093810081EA809368
:100FF0008000809181008860809381008AE08093E6
:101000004E0281E080934C020895CF92DF92EF92DE
:10101000FF920F931F93CF93DF9300D01F92CDB712
:10102000DEB78C018EEFE82E8091E800982F957046
:10103000D9F382FD2FC0262F613408F020E4F22E70
:101040006801FA948FEFF816E9F0411103C0F60138
:10105000808104C0413029F4F60184918093F1002D
:101060000DC0423059F4C60129834B836A830E9424
:10107000680C8093F1006A814B812981FFEFCF1AC0
:10108000DF0ADFCF020F111DE092E800621B61F65C
:10109000203451F20F900F900F90DF91CF911F915C
:1010A0000F91FF90EF90DF90CF90089580EA8093AA
:1010B000D80086E089BD09B400FEFDCF80E88093AA
:1010C000D8001092E00089E08093E2001092620262
:1010D00081E080935E0282E080935A0278940895C2
:1010E0009FB7F89480915302882321F020915202F7
:1010F00081E0211180E09FBF0895809152028823F2
:10110000C1F0809151028823A1F089B5826089BD28
:1011100009B400FEFDCF8091D8008F7D8093D80068
:101120008091E00082608093E0001092510281E0A3
:10113000089580E008952FB7F89430915302332337
:1011400061F030915202311108C04093E9003091B2
:10115000E80035FF02C0FC0103C02FBF80E0089506
:10116000615020F081918093F100FACF8AE1809361
:10117000E8002FBF81E008951F920F920FB60F92E3
:1011800011248F939F938091E1001092E10083FFDF
:1011900016C01092E90081E08093EB001092EC0001
:1011A00082E38093ED0088E08093F0001092620269
:1011B0001092520210925102109253024FC090911D
:1011C0005302992309F44AC080FF1AC09091E200AB
:1011D00090FF16C09091E2009E7D9093E200909166
:1011E000E20090619093E2009091D8009062909319
:1011F000D80099B59D7F99BD91E0909352021BC094
:1012000084FF19C09091E20094FF15C099B59260D7
:1012100099BD09B400FEFDCF9091D8009F7D9093B9
:10122000D8009091E2009F7E9093E2009091E200BE
:1012300095629093E20085FF04C09091E20095FDD5
:1012400006C082FF0BC08091E20082FF07C0809140
:10125000E2008B7D8093E200109252029F918F9169
:101260000F900FBE0F901F9018951F920F920FB600
:101270000F9211242F933F934F935F936F937F931C
:101280008F939F93AF93BF93CF93EF93FF9310925E
:10129000E9008091E80083FF3EC19091F1008091C8
:1012A000F1002091F1004091F10030E0342B4091A9
:1012B000F1006091F10050E0562B6091F100C09177
:1012C000F10072EF7093E800863009F417C18530A1
:1012D00059F48EEF8093E8008091E80080FFFCCF06
:1012E00020682093E30041C1893041F591114CC041
:1012F0008EEF8093E8002093530283E894E041E06E
:101300004093E9009C012F5F3F4FFC0154915093A3
:10131000EB00552361F0F90124912093EC009C012E
:101320002D5F3F4FFC01329684918093ED004F5F1B
:10133000453011F0C901E4CF8EE149C0883041F455
:10134000903809F059C0809153028093F10086C013
:1013500081111AC0923851F44093E9008091EB005A
:1013600085FB882780F91092E90009C0903831F494
:1013700080915102882311F082E001C080E08093C7
:10138000F1001092F1006AC0682F6D7F6130A1F505
:10139000923011F52115310509F093C0642F6F7754
:1013A0007FEF760F743008F08CC09EEF9093E800CA
:1013B0006093E900833009F4AEC089E18093EB00CB
:1013C00081E090E0062E01C0880F0A94EAF780932E
:1013D000EA001092EA00C9C091110EC02130310517
:1013E00009F06FC09EEF9093E80091E0833009F020
:1013F00090E090935102B9C04115510509F064C0C5
:10140000913AE1F4813059F48091620240E0811117
:1014100002C068E001C060E183E692E06CC0823007
:1014200029F440E061E081E692E065C0833009F094
:1014300072C040E061E082E692E05DC0913209F066
:101440006AC0893079F48091E80082FFFCCF8091F6
:10145000F100809373028BEF8093E8008EEF80930E
:10146000E80083C08A3029F58EEF8093E800232FAF
:1014700033272115310519F410925D0217C08091B0
:101480006102882351F08091610240915D0290E0F9
:10149000841B91098217930714F081E005C08091A5
:1014A0005D02F22FF81B8F2F80935D022093610263
:1014B0005CC08B3081F58EEF8093E8002093620250
:1014C00054C04115510539F14130510521F5913A8A
:1014D00011F5813001F533272130310529F440E041
:1014E00063E08EE592E007C022303105A1F440E0D0
:1014F00063E08AE592E00E94050837C083E394E048
:10150000FC01A591B491A217B30749F0089674E0C5
:1015100083389707A9F781E28093EB0026C0FC018E
:101520003296A591B491A417B50781F7009799F366
:10153000E4E08B349E0719F421E02093620270E00E
:101540007C2BFC01379654919B012227232B09F019
:101550006FEFFC01369644910496FC0185919491BD
:10156000561708F0C8CF652FC6CFFF91EF91CF91E6
:10157000BF91AF919F918F917F916F915F914F91AB
:101580003F912F910F900FBE0F901F9018958823B9
:1015900069F1E3E6F2E092E0E337F90711F0119226
:1015A000FACF282F30E021503109C90163E070E003
:1015B0000E94570CFC01EB54FA4FE491E09358025F
:1015C000C90163E070E00E94570C8A549A4FFC01F5
:1015D00085919491909357028093560282E090E017
:1015E000909355028093540281E8089580915402AB
:1015F000909155029C01215031093093550220935E
:101600005402892B09F052C0409156025091570262
:10161000A0915802A15090E080E8FA012591349100
:101620004E5F5F4FEFEFEA0FB901607F603E7105DB
:1016300061F427700024039401C0000C2A95EAF796
:10164000202D81E8922BAE2FE8CF50935702409384
:101650005602A09358029093630237FF02C03F776F
:101660000AC035FF0DC03F703093600220935F02C7
:10167000826024E130E0309355022093540212C07E
:1016800036FF07C03F7030935C0220935B0284609A
:10169000F0CF2093650282E090E090935502809312
:1016A000540281E8A11103C08F77089580E808955E
:1016B00010926E0081E08093E000F89480E28093C5
:1016C000D80089B58D7F89BD88E10FB6F8948093E5
:1016D0006000109260000FBE14B815B817B818B8A3
:1016E0001AB81BB81092640010928000109281000A
:1016F00014BC15BC8FEF9FE70197F1F7E3E0F0E032
:1017000089E080935700E491E670E63019F40C9478
:10171000003F09C0E43019F40C94003E04C0E230EC
:1017200011F40C94003C0C940038FFCF0E94B907D0
:101730000E9456088DE78093610283B7817F83BF43
:101740000E949F0710E008E0FF24F39488E1E82E50
:10175000C8E1D0E09DE0D92E83B7816083BF80913E
:101760005902811102C08895FACF83B78E7F83BF5B
:10177000109259020E947008882309F468C0FF2063
:1017800021F180E090E80FB6F89490936100809387
:1017900061000FBE81E00E94E3040E9494070FB62F
:1017A000F894A895C09360000FBED092600081E0CD
:1017B0000E94780681E00E94060580916102809374
:1017C0005D0210E008E0F12CC7CF002311F00150BA
:1017D0000CC080915D02815080935D02811104C034
:1017E000809161028111116008E080E00E9406058D
:1017F00080E00E947806182B10FF13C080916202CF
:10180000882311F060E101C068E043E083E692E0E4
:101810000E949B08882329F01E7F8091610280939B
:101820005D0211FF08C044E063E08EE592E00E9493
:101830009B0881111D7F12FF08C044E063E08AE528
:1018400092E00E949B0881111B7FA89585CF809113
:101850005202882309F480CFF1101EC081E00E945B
:10186000060581E00E94E30481E00E9459060FB65C
:10187000F894E0926000109260000FBE0E94890709
:1018800080E891E00FB6F894809361009093610036
:101890000FBEFF24F39460CF80E00E94E30480E059
:1018A0000E9459068823A9F30E947D08F2CF0024E4
:1018B000552704C0080E591F880F991F009729F05B
:1018C00076956795B8F37105B9F7802D952F089532
:1018D000F999FECF92BD81BDF89A992780B50895F8
:0418E000F894FFCFAA
:00000001FF
