:100000000C94E0020C94FB020C94FB020C94FB0297
:100010000C94FB020C94FB020C94FB020C94FB026C
:100020000C94FB020C94FB020C94FB020C946808E9
:100030000C94E1080C94FB020C94FB020C94FB0260
:100040000C94FB020C94FB020C94FB020C945207E0
:100050000C94FB020C94FB020C94FB020C94FB022C
:100060000C94FB020C94FB020C94FB020C94FB021C
:100070000C94FB0200F00000E0C400C4C6282A3142
:10008000FE00C7C5E60000000047E246F037C10F9A
:10009000C01200260036300E2E0CC22511C91C0DD0
:1000A000A5180B24CD191709A2150A2100CA3C076F
:1000B0003B083DA4001B39163A1A641F001D2B048F
:1000C0003514A0A14EFF5CA1C25F2C004D54A25A72
:1000D000C560A300000000FE000000000000E1E594
:1000E000000000004A000058C1574BC00000FE004D
:1000F000000000005655A5A4C66163C738002F3321
:100100002D1334A300F00000E0C40000F9582A3198
:1001100081000082E60000000047E2FAF063005B25
:10012000005E00610036305A2E5D006000620059AA
:10013000005C005F00000000000000000000000004
:1001400000000000000039000000640000002B00E7
:1001500000002900FDFF211EFB242C00C038221FB7
:10016000C1252700000000E7000000000000E1E5D5
:1001700000000000C1000028C057FCC50000E300DB
:10018000000000002D552320C62637C754002F57E6
:100190005600556200E40000E048003E45282A3140
:1001A00042004443E60000000047E246F037400FBB
:1001B000411200260036300E2E0C3F2511101C0D6A
:1001C00023180B240519170922150A2100063C07DC
:1001D0003B083D20001B39163A1A641F001D2B04F2
:1001E0003514291E51FF211E4C242C004F54221F70
:1001F00049252700000000E7000000000000E1E5BD
:1002000000000000500000584A57524D0000E30023
:1002100000000000565523204B26374E38002F3360
:100220002D13342700E40000E048003E45282A3121
:1002300042004443E60000000047E246F037400F2A
:10024000411200260036300E2E0C3F2511101C0DD9
:1002500023180B240519170922150A2100063C074B
:100260003B083D20001B39163A1A641F001D2B0461
:100270003514291E51535C594C5F2C004F545D5A64
:1002800049606200000000E7000000000000E1E5B6
:1002900000000000500000584A57524D0000E30093
:1002A0000000000056555E5B4B61634E38002F33F3
:1002B0002D133427FFFFFFFFFFFFFFFFFFFFFFFFAF
:1002C000FDFBF9F7F3EDE5DDD1C5B5A595837363C6
:1002D00046281405000514284663738395A5B5C503
:1002E000D1DDE5EDF3F7F9FBFDFFFFFFFFFFFFFFBA
:1002F000FFFFFFFF7D4E5E0B1B2B3B4B5B6B4D7C73
:100300006C5C4C1F0F7B7FB500B600B700CC00CDF6
:1003100000E200E900EA0083018A019201940121D0
:1003200002230224022502260227022A0209023B96
:1003300000020100A01909040000010301010009E5
:100340002111010001223D00070583030800020975
:100350000401000103000000092111010001223005
:10036000000705840303000A120100020000004098
:10037000D90445450101010200010203260346009C
:1003800049004C0043004F0020004D0061006A000E
:100390006500730074006F00750063006800200042
:1003A0003200180344004900410054004500430056
:1003B000200043006F00720070000403090405016F
:1003C0000980A1018501158125B7198129B775100B
:1003D00095018100C0050C0901A1018502150126C6
:1003E0009C0219012A9C02751095018100C005012B
:1003F0000906A10175019508050719E029E715000F
:10040000250181029501750881039505750105088F
:1004100019012905910295039103950675081500A8
:1004200025DD0507190029DD8100C00001000068F5
:10043000030112000200002D03013B002100003FD8
:1004400003010900220000EE03013D0021010058D4
:1004500003010900220100BE03013000030000BABD
:1004600003010401030904A2030118020309047C27
:10047000030126030309047A030102000001C106F7
:1004800001C1061C95040ECD0423E904202F0504A8
:100490006F052477050C0009002C00E10026002CD4
:1004A0000000002C00E10027002800E1002F0028B8
:1004B00000E100300052000000520000004F000038
:1004C000004F0000004F0000004F0000002800080F
:1004D000000F00160008002800E1002F002800E1AE
:1004E0000030005200280000000900120015002C06
:1004F00000E10026002C003300000033002C00E156
:100500000027002800E1002F002800E10030005201
:10051000000000520000004F0000004F0000004F9C
:100520000000004F0000004F0000004F00000007D7
:100530000012002800E1002F002800E10030002810
:10054000001A000B000C000F0008002C00E1002630
:10055000002C0000002C00E10027002C003300508C
:100560000000005000000050000000500000006239
:100570000000006200000035000000E8831900124E
:10058000000C0006000800E1002D0016000B001210
:10059000001A00E1002D00100018001700080028C4
:1005A000000000F481190012000C0006000800E1B0
:1005B000002D0010001800170008002C000000009B
:1005C00011241FBECFEFD4E0DEBFCDBF14BE88E143
:1005D0000FB6F89480936000109260000FBE11E097
:1005E000A0E0B1E001C01D92A43DB107E1F70E9477
:1005F000320B0C94090C0C9400008091100188239C
:1006000041F0813019F483E790E00CC083E091E081
:1006100009C080910E01882319F083E991E002C09E
:1006200083E292E090931401809313010895613561
:1006300020F4962F990F909509C094EB961B20E516
:1006400030E0261B3109220F220F920F86FD909376
:10065000880085FD90938A0087FD90938C00089513
:10066000CF93DF93E0911301F0911401E80FF11D96
:10067000E491E11101C014C19E2FE7FFDCC0907F1F
:10068000903E11F590910D0191110AC190911101C7
:10069000992331F0E33E09F403C1E73E09F400C1B8
:1006A000E770AE2FB0E0A755BE4F16968C9300248E
:1006B000039401C0000CEA95EAF7E02D8091CB018C
:1006C000E82BE093CB01EAC0903F09F04FC0E03F38
:1006D00031F4809110018F5F809310010DC0EF3FC6
:1006E00071F49091D30190FDA5C081E090910E012D
:1006F000911180E080930E010E94FD02D1C0EE3F77
:1007000041F481E090911101911180E080931101F9
:10071000C7C0EC3F39F480910F018A3508F0C0C0A2
:10072000865F08C0ED3F49F480910F018B3008F4DB
:10073000B7C08A5080930F01B3C0EB3F41F481E012
:1007400090911201911180E080931201A9C0E93FBC
:1007500041F481E090910D01911180E080930D01B1
:100760009FC0EA3F09F09CC00E94F40A903A09F049
:1007700048C0E23A39F130F4E03A59F0E13A09F090
:100780008FC01CC0E43A31F108F1E53A09F088C0A5
:1007900025C080910701882329F01092080110924A
:1007A00007017EC021E02093080181E090E0909352
:1007B0000C0180930B012093070172C08091080106
:1007C0008F5F0FC0809108018B5F0BC08091080183
:1007D000865F07C080910801825E03C08091080196
:1007E000845C8093080180910701811159C081E0E8
:1007F0008093070180E69AEE90930C0180930B01A1
:100800004FC0903841F48093B701E093C701109234
:10081000C80182E046C08093B801F0E0EE0FFF1FF0
:10082000E957FE4F859194918093C3019093C40141
:1008300084E037C093E520910D01211131C049EAD0
:1008400051E0DA0120E030E06D91611109C0D90179
:10085000A755BE4F8C93F901E553FE4F92831EC0FE
:100860002F5F3F4F2630310579F72FB7F894AAEA6A
:10087000B1E06EEC71E0CDECD1E03D91FA01319345
:10088000AF01FB013191BF013993F1E0AF3ABF07EE
:10089000A1F78093AE019093D2012FBF81E001C0F8
:1008A00080E0DF91CF91089549EA51E0ADECB1E0ED
:1008B00090E0FA014F5F5F4F2081281312C08FB77D
:1008C000F8949E1B06C02181219311962C911197BB
:1008D0002D93292F2E0F2530B0F310821C928FBF3D
:1008E0001AC09F5F1196963021F79A01F9012F5F88
:1008F0003F4F4081481311C010829650002403944A
:1009000001C0000C9A95EAF7902D90958091CB014B
:1009100098239093CB0181E008959F5F9E3031F73B
:100920009091B701981308C01092B7011092C801B6
:100930001092C70182E008959091B801981308C001
:100940001092B8011092C4011092C30184E008957E
:1009500090911001992371F0E0911301F09114012D
:10096000E80FF11DE491E03F29F4915090931001BC
:100970000E94FD0280E008958DE280931501809130
:100980000D01E0911601882311F0F0E02FC0809155
:1009900017018823B1F02E2F30E0F901EC54FD4F00
:1009A000E491E0938A00F9013596EF73FF27EC5448
:1009B000FD4F849180938800F9013A96EF73FF27E9
:1009C00015C08E2F90E0FC013A96EF73FF27EC5490
:1009D000FD4FE491E0938A00FC013596EF73FF2709
:1009E000EC54FD4FE491E0938800FC01EC54FD4F82
:1009F000E491E0938C00809116018F5F8F73809358
:100A00001601811107C081E090911701911180E0DA
:100A1000809317010895882331F02F9A10920101D5
:100A200010920001089580910001909101019C01B4
:100A3000215031093093010120930001892B69F481
:100A40002F9904C02F9A87EB9BE003C02F9881E079
:100A500090E090930101809300010895CF93DF937C
:100A60008823D1F088EB9BE09093030180930201EF
:100A70001092040185E190E09093060180930501B6
:100A80008FEF8093880080938A0080938C0080E0B1
:100A900092E00197F1F72AC180910401982F9150BB
:100AA00090930401811122C181E08093040180911F
:100AB0000701882309F456C020910801211136C08E
:100AC00090910901892F81508093090191111BC0D8
:100AD00088E180930901809105019091060180FFD2
:100AE00003C01092880006C090FF04C010928A00D4
:100AF00010928C0080FB979597F98795809305015C
:100B00009093060109C0853039F48FEF80938800F7
:100B100080938A0080938C008091D30190910A0188
:100B2000981709F4E3C010920701E0C080910B010F
:100B300090910C01019790930C0180930B01892BEC
:100B400089F4822F815080930801811105C0809122
:100B5000D30180930A0106C080E69AEE90930C01BF
:100B600080930B01D0910D01D11177C09091D301E9
:100B700080910E0190FD02C08823C9F0882341F0C6
:100B80008091D30180FF04C010920E010E94FD02EB
:100B900090910E0180910F01992319F064E6681B72
:100BA00001C0682F80E20E941703C0E201C0C0E0CC
:100BB0008091D30181FD04C0809110018823B9F098
:100BC000C06480911001882329F084E690910F0180
:100BD000891B01C080E09091D30191FF03C0609117
:100BE0000F0101C060E0680F80E40E94170380914C
:100BF000D30182FD04C0809111018823C1F0C06837
:100C000080911101882329F084E690910F01891BBE
:100C100001C080E09091D30192FF03C060910F0169
:100C200001C060E0680F80E80E94170302C0CC2377
:100C3000A1F080EE8C2786FF03C09FEF9093880081
:100C400085FF03C09FEF90938A0087FF03C08FEF5B
:100C500080938C0088EB9BE018C0809102019091FA
:100C600003010097B9F120911201222399F0D111CB
:100C700011C0883B9B40D1F58FEF80938800809313
:100C80008A0080938C0087EB9BE090930301809314
:100C900002012CC0883B2BE0920739F42FEF209300
:100CA000880020938A0020938C0001979093030181
:100CB00080930201892BD1F4109215011092160134
:100CC000109217018FEF8093880080938A008093A1
:100CD0008C000CC080911501982F915090931501B4
:100CE000811104C0DF91CF910C94BC04DF91CF91AE
:100CF0000895882319F01092180116C08DE48BB95D
:100D000082E08A95F1F783B185FB882780F991E02D
:100D1000892790911801990F982B909318018FE7CC
:100D20008BB981E09F3709F080E00895BF92CF92A0
:100D3000DF92EF92FF920F931F93CF93DF9388235D
:100D400099F1E4E2F2E0A9E1B1E08FEF9FE72491AD
:100D5000222311F09C9301C08C931196319621E0CF
:100D6000A93AB207A1F7EBECF1E0119281E0E33D83
:100D7000F807D9F7E9EAF1E0119221E0E73BF20741
:100D8000D9F7109210010E94FD021092B701109243
:100D9000B8011092C8011092C7011092C4011092BC
:100DA000C30137E0D32E52C08DE78BB985E08A9519
:100DB000F1F700E010E0D12C29E1E22E21E0F22E43
:100DC00086B182FB80F987FB84F98171082E83B19B
:100DD00084FB87F985FB84F986FB85F984FB86F91A
:100DE0008E7E8029B82EF801EB50FD4FE491EBB9CF
:100DF000E70199E0C92E1FC098819F3FD1F09F7BEA
:100E000097FB990F97F9B0FA90F9903441F4CE011D
:100E1000885191400E943003D82A90EC09C09F3B32
:100E200039F4CE01885191400E945404D82A9FE39E
:100E300098832196B694CA94F9F628E0E20EF11C44
:100E40000F5F1F4F0231110509F0BACF8D2DDF91D1
:100E5000CF911F910F91FF90EF90DF90CF90BF90B7
:100E60000895E0E8F0E08081837F8083E4E6F0E0AD
:100E70008081886080830895E4E6F0E08081877F48
:100E80008083E0E8F0E0808188608083089516BC6C
:100E900081E085BB82E085BBEEE6F0E08081826088
:100EA000808308951F920F920FB60F9211248F9393
:100EB00081E08093C1018F910F900FBE0F901F9022
:100EC000189580E880BF94E09093640091E090933F
:100ED000650090E00FB6F8948093610090936100F4
:100EE0000FBE84B98FEF85B980E687B986EF88B9E0
:100EF00087E78AB98FE78BB985E085BD87E026E073
:100F000031E007C093B5916093BD26BD35BBA89B6A
:100F1000FECF8150B9F783E085BD8DE787BD84B5ED
:100F2000826084BD10928500109284008BEE8093C5
:100F3000880080938A0080938C0082E080938100F7
:100F400089EA80938000809181008860809381008D
:100F50008AE080930F0181E0809312010895CF927F
:100F6000DF92EF92FF920F931F93CF93DF9300D006
:100F70001F92CDB7DEB78C018EEFE82E8091E8008E
:100F8000982F9570D9F382FD2FC0262F613408F079
:100F900020E4F22E68011CC0411103C0F6018081DB
:100FA00004C0413029F4F60184918093F1000DC012
:100FB000423059F4C60129834B836A830E94010C95
:100FC0008093F1006A814B812981FFEFCF1ADF0AFC
:100FD000FA948FEFF812E0CF020F111DE092E800B3
:100FE000621B61F6203451F20F900F900F90DF9149
:100FF000CF911F910F91FF90EF90DF90CF900895C8
:1010000080EA8093D80086E089BD09B400FEFDCF58
:1010100080E88093D8001092E00089E08093E2009D
:1010200081E08093CA018093C60182E08093C2016F
:10103000789408952FB7F8948091BB01882331F0FC
:101040003091BA0181E090E0332311F080E090E02C
:101050002FBF08958091BA018823C1F08091B90112
:101060008823A1F089B5826089BD09B400FEFDCF57
:101070008091D8008F7D8093D8008091E0008260BD
:101080008093E0001092B90181E0089580E0089516
:101090002FB7F8943091BB01332351F03091BA014E
:1010A000311106C04093E9003091E80035FD08C0D9
:1010B0002FBF80E00895FC013191CF013093F10002
:1010C0006150C8F78AE18093E8002FBF81E008955E
:1010D0001F920F920FB60F9211248F939F938091BE
:1010E000E1001092E10083FF16C01092E90081E058
:1010F0008093EB001092EC0092E39093ED0098E067
:101100009093F0008093CA011092BA011092B90135
:101110001092BB014FC09091BB01992309F44AC0C2
:1011200080FF1AC09091E20090FF16C09091E200FB
:101130009E7D9093E2009091E20090619093E20096
:101140009091D80090629093D80099B59D7F99BDF9
:1011500091E09093BA011BC084FF19C09091E20006
:1011600094FF15C099B5926099BD09B400FEFDCFFA
:101170009091D8009F7D9093D8009091E2009F7E3F
:101180009093E2009091E20095629093E20085FFD7
:1011900004C09091E20095FD06C082FF0BC08091D3
:1011A000E20082FF07C08091E2008B7D8093E20025
:1011B0001092BA019F918F910F900FBE0F901F90C8
:1011C00018951F920F920FB60F9211242F933F93F1
:1011D0004F935F936F937F938F939F93AF93BF933F
:1011E000EF93FF931092E9008091E80083FF5BC1C9
:1011F0009091F1008091F1004091F1005091F10047
:10120000352F20E0242B6091F1007091F100572FD1
:1012100040E0462BA091F100B091F10062EF6093A5
:10122000E800863009F030C08BE294E0FC01659163
:1012300074916217730739F4FC01329665917491C9
:101240006417750731F0089664E08B37960771F7DD
:101250002AC1009709F427C17B2F60E06A2BFC01AB
:10126000379654919B012227232B09F06FEFFC0145
:10127000369644910496FC0125913491C901561784
:1012800008F00EC1652F0CC1853059F48EEF8093A4
:10129000E8008091E80080FFFCCF20682093E30005
:1012A0000AC1893041F5911185C08EEF8093E80025
:1012B0002093BB018BE794E041E001C0C90140935A
:1012C000E9009C012F5F3F4FFC0154915093EB00CC
:1012D000552361F0F90124912093EC009C012D5FCE
:1012E0003F4FFC01329684918093ED004F5F453073
:1012F00029F78EE14AC0883041F4903809F05AC08D
:101300008091BB018093F10081C081111AC0923895
:1013100051F44093E9008091EB0085FB882780F928
:101320001092E90009C0903831F48091B901882306
:1013300011F082E001C080E08093F1001092F10092
:1013400065C0813011F08330A9F5923019F521156F
:10135000310509F0ACC0BA016F777727E62FE1506D
:10136000E43008F0A4C09EEF9093E8006093E90099
:10137000833009F498C089E18093EB0081E090E02C
:10138000062E01C0880F0A94EAF78093EA001092B3
:10139000EA0091C091110EC02130310509F087C0DB
:1013A0009EEF9093E80091E0833009F090E09093F5
:1013B000B90181C04115510509F05BC0913AB1F402
:1013C000813029F440E068E08BEC91E069C0823024
:1013D00029F440E061E089EC91E062C0833009F0DB
:1013E00062C040E061E08AEC91E05AC0913209F0BD
:1013F0005AC0893079F48091E80082FFFCCF809157
:10140000F1008093D3018BEF8093E8008EEF8093FF
:10141000E80051C08A3029F58EEF8093E800232F31
:101420003327422F211103C01092C50117C08091AC
:10143000C901882351F08091C9015091C50190E004
:10144000851B91098217930714F081E005C08091F4
:10145000C501F22FF81B8F2F8093C5014093C9015E
:101460002AC08B3001F58EEF8093E8002093CA01EB
:1014700022C041305105B9F4913AA9F4813099F470
:1014800033272130310529F440E063E086EC91E018
:1014900007C02230310539F440E063E082EC91E08E
:1014A0000E94AF0708C081E28093EB0004C04115A1
:1014B0005105C9F3DECFFF91EF91BF91AF919F919D
:1014C0008F917F916F915F914F913F912F910F90ED
:1014D0000FBE0F901F901895882321F1EBECF1E0DF
:1014E000119291E0E33DF907D9F790E0019763E0AD
:1014F00070E00E94EF0BFC01ED57FB4FE491E0938D
:10150000BC01FC01EC57FB4F859194918093BD0188
:101510009093BE0184E090E09093C0018093BF015E
:1015200081E808958091BF019091C0019C012150F4
:1015300031093093C0012093BF01892B09F052C0BB
:101540004091BD015091BE01A091BC01A15090E01D
:1015500080E8FA01259134914E5F5F4FEA2FE15008
:10156000B901607F603E710561F427700024039427
:1015700001C0000C2A95EAF7202D922B81E8AE2FAE
:10158000E8CF5093BE014093BD01A093BC0190935E
:10159000CB0137FF02C03F770AC035FF0DC03F7057
:1015A0003093C8012093C701826024E130E030937A
:1015B000C0012093BF0112C036FF07C03F703093B7
:1015C000C4012093C3018460F0CF2093CD0184E057
:1015D00090E09093C0018093BF0181E8A11103C006
:1015E0008F77089580E8089510926E0081E08093CF
:1015F000E000F89480E28093D80089B58D7F89BDA2
:1016000088E10FB6F89480936000109260000FBEDE
:1016100014B815B817B818B81AB81BB810926400E7
:10162000109280001092810014BC15BC8FEF9FE7D0
:101630000197F1F7E3E0F0E089E080935700E4914F
:10164000E670E63019F40C94003F09C0E43019F458
:101650000C94003E04C0E23011F40C94003C0C9455
:101660000038FFCF0E9461070E9400088DE7809339
:10167000C90183B7817F83BF0E94470710E008E05C
:10168000FF24F39488E1E82EC8E1D0E09DE0D92E54
:1016900002C0FF24F39483B7816083BF01C08895A3
:1016A0008091C1018823D9F383B78E7F83BF1092C5
:1016B000C1010E941A08882309F462C0FF2021F1A9
:1016C00080E090E80FB6F8949093610080936100F9
:1016D0000FBE81E00E940B050E943C070FB6F894F4
:1016E000A895C09360000FBED092600081E00E9478
:1016F000960681E00E942E058091C9018093C50164
:1017000010E008E0F12CC7CF002311F001500CC00D
:101710008091C50181508093C501811104C08091E1
:10172000C9018111116008E080E00E942E0580E06F
:101730000E949606182B10FF0DC043E068E08BEC6A
:1017400091E00E944808882329F01E7F8091C901FA
:101750008093C50111FF08C044E063E086EC91E08E
:101760000E94480881111D7F12FF08C044E063E019
:1017700082EC91E00E94480881111B7FA8958BCFD5
:101780008091BA01882309F486CFF1101CC081E052
:101790000E942E0581E00E940B0581E00E947906DF
:1017A0000FB6F894E0926000109260000FBE0E94A5
:1017B000310780E891E00FB6F89480936100909330
:1017C00061000FBE66CF80E00E940B0580E00E94A2
:1017D0007906882309F45DCF0E942A085ACF55273D
:1017E000002480FF02C0060E571F660F771F611589
:1017F000710521F096958795009799F7952F802D83
:101800000895F999FECF92BD81BDF89A992780B5C8
:061810000895F894FFCFDB
:00000001FF
