:100000000C94E4020C94FF020C94FF020C94FF0287
:100010000C94FF020C94FF020C94FF020C94FF025C
:100020000C94FF020C94FF020C94FF020C944E08F7
:100030000C94C7080C94FF020C94FF020C94FF026E
:100040000C94FF020C94FF020C94FF020C943A07EC
:100050000C94FF020C94FF020C94FF020C94FF021C
:100060000C94FF020C94FF020C94FF020C94FF020C
:100070000C94FF0200F00000E0C400C4C6282A313E
:10008000FE00C7C5E60000000053E246F037C10F8E
:10009000C01200260036300E2E0CC22511C91C0DD0
:1000A000A5180B24CD191709A2150A2100CA3C076F
:1000B0003B083DA4001B39163A1A641F001D2B048F
:1000C0003514A0A14E000000C2002C004D0000001D
:1000D000C5000000000000FE000000000000E1E597
:1000E000000000004A000000C1004BC00000FE00FC
:1000F0000000000000000000C60000C738002F33D9
:100100002D1334A300F00000E0C40000F9582A3198
:1001100081000082E60000000047E2FAF063005B25
:10012000005E00610036305A2E5D006000620059AA
:10013000005C005F00000000000000000000000004
:1001400000000000000053000000640000002B00CD
:1001500000002900FD000000FB002C00C000000092
:10016000C1000000000000E7000000000000E1E521
:1001700000000000C1000000C000FCC50000E3005A
:100180000000000000000000C60000C754002F5708
:100190005600556200E40000E048003E45582A3110
:1001A00042004443E600000000FFE246F063405B8B
:1001B000415E00610036305A2E5D3F6011621C596D
:1001C000235C0B5F0519170922150A2100063C075D
:1001D0003B083D20001B53163A1A641F001D2B04D8
:1001E0003514291E510000004C002C004F00000067
:1001F00049000000000000E7000000000000E1E509
:1002000000000000500000004A00524D0000E300D2
:1002100000000000000000004B00004E54002F576B
:100220005613552700E40000E048003E45282A31D7
:1002300042004443E600000000FFE246F037400F72
:10024000411200260036300E2E0C3F2511101C0DD9
:1002500023180B240519170922150A2100063C074B
:100260003B083D20001B39163A1A641F001D2B0461
:100270003514291E510000004C002C004F000000D6
:1002800049000000000000E7000000000000E1E578
:1002900000000000500000004A00524D0000E30042
:1002A00000000000000000004B00004E38002F331B
:1002B0002D133427FFFFFFFFFFFFFFFFFFFFFFFFAF
:1002C000FDFBF9F7F3EDE5DDD1C5B5A595837363C6
:1002D00046281405000514284663738395A5B5C503
:1002E000D1DDE5EDF3F7F9FBFDFFFFFFFFFFFFFFBA
:1002F000FFFFFFFF1747647D666E756D657C1F27E6
:100300002F740F6C073F7FB500B600B700CC00CD4F
:1003100000E200E900EA0083018A019201940121D0
:1003200002230224022502260227022A0209023B96
:1003300000020100A01909040000010301010009E5
:100340002111010001223D00070583030800020975
:100350000401000103000000092111010001223005
:10036000000705840303000A120100020000004098
:10037000D904181802010102000102032E034600ED
:1003800049004C0043004F0020004D0061006A000E
:100390006500730074006F00750063006800200042
:1003A0003200200054004B004C0018034400490068
:1003B0004100540045004300200043006F007200DC
:1003C00070000403090405010980A101850115815C
:1003D00025B7198129B7751095018100C0050C0951
:1003E00001A10185021501269C0219012A9C0275B2
:1003F0001095018100C005010906A101750195084C
:10040000050719E029E71500250181029501750806
:1004100081039505750105081901290591029503C8
:10042000910395067508150025DD0507190029DDDE
:100430008100C00001000068030112000200002DCD
:1004400003013B002100003F03010900220000F6E8
:1004500003013D002101005803010900220100C6EB
:1004600003013000030000C203010401030904AAD0
:10047000030118020309047C03012E030309047A13
:10048000030102000001C10601C1061C9D040ED536
:100490000423F104203705047705247F050C0009A7
:1004A000002C00E10026002C0000002C00E10027B9
:1004B000002800E1002F002800E100300052000079
:1004C00000520000004F0000004F0000004F0000ED
:1004D000004F000000280008000F00160008002848
:1004E00000E1002F002800E1003000520028000049
:1004F000000900120015002C00E10026002C00333A
:1005000000000033002C00E10027002800E1002F4C
:10051000002800E100300052000000520000004FAF
:100520000000004F0000004F0000004F0000004F8F
:100530000000004F000000070012002800E1002F1B
:10054000002800E100300028001A000B000C000F0A
:100550000008002C00E10026002C0000002C00E127
:100560000027002C00330050000000500000005015
:10057000000000500000001B0000001B00000035C0
:10058000000000E883190012000C0006000800E1DA
:10059000002D0016000B0012001A00E1002D0010C3
:1005A0000018001700080028000000F4811900124C
:1005B000000C0006000800E1002D001000180017D4
:1005C0000008002C0000000011241FBECFEFD4E073
:1005D000DEBFCDBF14BE88E10FB6F89480936000F3
:1005E000109260000FBE11E0A0E0B1E001C01D92CA
:1005F000A43DB107E1F70E94160B0C94ED0B0C948F
:10060000000080911001882341F0813019F483E7C4
:1006100090E00CC083E091E009C080910E01882336
:1006200019F083E991E002C083E292E09093130114
:10063000809312010895CF93DF93E0911201F0911E
:100640001301E80FF11DE491E11101C014C19E2FC7
:10065000E7FFDCC0907F903E11F590910D01911164
:100660000AC19091B801992331F0E33E09F403C126
:10067000E73E09F400C1E770AE2FB0E0A855BE4FC9
:1006800016968C930024039401C0000CEA95EAF7B7
:10069000E02D8091CB01E82BE093CB01EAC0903FA5
:1006A00009F04FC0E03F31F4809110018F5F8093DB
:1006B00010010DC0EF3F71F49091D30190FDA5C0E2
:1006C00081E090910E01911180E080930E010E94D3
:1006D0000103D1C0EE3F41F481E09091B801911146
:1006E00080E08093B801C7C0EC3F39F480910F01DE
:1006F0008A3508F0C0C0865F08C0ED3F49F480919C
:100700000F018B3008F4B7C08A5080930F01B3C03B
:10071000EB3F41F481E090911101911180E08093D1
:100720001101A9C0E93F41F481E090910D019111BF
:1007300080E080930D019FC0EA3F09F09CC00E94B9
:10074000D80A903A09F048C0E23A39F130F4E03A78
:1007500059F0E13A09F08FC01CC0E43A31F108F1D8
:10076000E53A09F088C025C080910701882329F067
:1007700010920801109207017EC021E02093080129
:1007800081E090E090930C0180930B01209307018E
:1007900072C0809108018F5F0FC0809108018B5F4C
:1007A0000BC080910801865F07C080910801825EBE
:1007B00003C080910801845C809308018091070147
:1007C000811159C081E08093070180E69AEE9093F1
:1007D0000C0180930B014FC0903841F48093B60117
:1007E000E093C7011092C80182E046C08093B70130
:1007F000F0E0EE0FFF1FE957FE4F85919491809333
:10080000C3019093C40184E037C093E520910D01AA
:10081000211131C048EA51E0DA0120E030E06D9169
:10082000611109C0D901A855BE4F8C93F901E55358
:10083000FE4F92831EC02F5F3F4F2630310579F760
:100840002FB7F894A9EAB1E06EEC71E0CDECD1E0FD
:100850003D91FA013193AF01FB013191BF01399311
:10086000F1E0AE3ABF07A1F78093AD019093D201BA
:100870002FBF81E001C080E0DF91CF91089548EA69
:1008800051E0ADECB1E090E0FA014F5F5F4F2081A5
:10089000281312C08FB7F8949E1B06C021812193A4
:1008A00011962C9111972D93292F2E0F2530B0F3EF
:1008B00010821C928FBF1AC09F5F1196963021F74D
:1008C0009A01F9012F5F3F4F4081481311C01082F8
:1008D00096500024039401C0000C9A95EAF7902DDD
:1008E00090958091CB0198239093CB0181E008955E
:1008F0009F5F9E3031F79091B601981308C0109217
:10090000B6011092C8011092C70182E0089590913B
:10091000B701981308C01092B7011092C401109249
:10092000C30184E00895E0911201F0911301E80FF2
:10093000F11DE491E03F49F480911001882329F0F2
:100940008150809310010E94010380E008958DE2A0
:100950008093140190910D0180911501992319F054
:10096000E82FF0E01BC090911601992361F090E010
:10097000FC01EC54FD4FE491E0938A00FC013796B2
:10098000EF73FF270BC090E0FC013796EF73FF2752
:10099000EC54FD4FE491E0938A00FC01EC54FD4FD0
:1009A000E491E0938800809115018F5F8F738093AD
:1009B0001501811107C081E090911601911180E02D
:1009C000809316010895882331F0469A1092010110
:1009D00010920001089580910001909101019C0105
:1009E000215031093093010120930001892B69F4D2
:1009F000469904C0469A87EB9BE003C0469881E085
:100A000090E0909301018093000108958823C1F044
:100A100088E893E19093030180930201109204010E
:100A200085E190E090930601809305018FEF80931C
:100A3000880080938A0080E092E00197F1F70895A2
:100A400080910401982F915090930401811125C148
:100A500081E08093040180910701882309F451C04B
:100A600020910801211131C090910901892F8150F5
:100A700080930901911118C088E180930901809148
:100A800005019091060180FF03C010928A0003C007
:100A900090FD1092880080FB979597F98795809339
:100AA00005019093060107C0853029F48FEF8093EC
:100AB000880080938A008091D30190910A01981751
:100AC00009F4EBC010920701089580910B019091F9
:100AD0000C01019790930C0180930B01892B89F4F1
:100AE000822F815080930801811105C08091D3012C
:100AF00080930A0106C080E69AEE90930C018093E1
:100B00000B0180910D01811182C08091D30181FD83
:100B100008C08091D30180FD04C080910E0188231C
:100B2000B1F180910E01882341F08091D30180FFC3
:100B300004C010920E010E9401038091D30180FD38
:100B400004C080910E01882329F084E690910F0162
:100B5000891B01C080E09091D30191FF03C03091C7
:100B60000F0101C030E0380F313520F4232F220F60
:100B7000209509C024EB231B80E590E0831B91099D
:100B8000880F880F280F20938A0030E201C030E0E0
:100B90008091D30182FD04C080911001882331F13E
:100BA000306480911001882329F084E690910F0130
:100BB000891B01C080E09091D30192FF03C0409156
:100BC0000F0101C040E0480F413520F4242F220FCF
:100BD000209509C024EB241B80E590E0841B91093B
:100BE000880F880F280F2093880002C0332379F0E4
:100BF00080E6832786FF03C09FEF9093880085FFE0
:100C000003C08FEF80938A0088E893E118C0809139
:100C10000201909103010097B1F12091110122236B
:100C200099F020910D0121110FC088389341A9F549
:100C30008FEF8093880080938A0087E893E19093F8
:100C400003018093020108958838934129F48FEFBE
:100C50008093880080938A00809102019091030123
:100C600001979093030180930201892BB1F41092B4
:100C7000140110921501109216018FEF80938800D5
:100C800080938A00089580911401982F9150909339
:100C90001401811102C00C94A7040895882319F04F
:100CA0001092170116C08FE18BB982E08A95F1F797
:100CB00083B183FB882780F991E089279091170100
:100CC000990F982B909317018FE78BB981E09F378D
:100CD00009F080E008959F92AF92BF92CF92DF9289
:100CE000EF92FF920F931F93CF93DF93882391F19D
:100CF000E4E2F2E0A8E1B1E080E89491992311F0F8
:100D00001C9201C08C931196319691E0A83AB907D4
:100D1000A1F7EBECF1E0119281E0E33DF807D9F7A0
:100D2000E8EAF1E0119291E0E63BF907D9F7109279
:100D300010010E9401031092B6011092B7011092A7
:100D4000C8011092C7011092C4011092C30137E08C
:100D5000C32E62C087E18BB985E08A95F1F700E088
:100D600010E0C12C28E1E22E21E0F22E9924939488
:100D700083B1002485FB00F882FB85F984FB82F9AE
:100D800081FB84F987FB81F980FB87F986FB80F979
:100D900083FB86F980FB83F98E7F8029A82EF801DA
:100DA000EB50FD4FE491EBB9E70199E0B92E29C072
:100DB000988197FD24C0892F8074DD24D394DA2094
:100DC000D9249F71990FD92A9FE1D9120AC08111A4
:100DD00014C0CE01875191400E941B03C82A80E4B1
:100DE0000CC090E2D91209C0882339F0CE01875196
:100DF00091400E943F04C82A80E0D82AD8822196D8
:100E0000A694BA94A9F688E0E80EF11C0F5F1F4F74
:100E10000231110509F0ACCF8C2DDF91CF911F91DC
:100E20000F91FF90EF90DF90CF90BF90AF909F9089
:100E30000895E0E8F0E080818F738083E4E6F0E0DD
:100E40008081886080830895E4E6F0E08081877F78
:100E50008083E0E8F0E0808180688083089516BC9C
:100E600081E085BB82E085BBEEE6F0E080818260B8
:100E7000808308951F920F920FB60F9211248F93C3
:100E800081E08093C1018F910F900FBE0F901F9052
:100E9000189580E880BF94E09093640091E090936F
:100EA000650090E00FB6F894809361009093610024
:100EB0000FBE14B88FEF85B980E687B986EF88B981
:100EC0008BE78AB98FE78BB985E085BD87E026E09F
:100ED00031E007C093B5916093BD26BD35BBA89B9B
:100EE000FECF8150B9F783E085BD8DE787BD84B51E
:100EF000826084BD10928500109284008BEE8093F6
:100F0000880080938A0082E08093810081EA809348
:100F10008000809181008860809381008AE08093C6
:100F20000F0181E0809311010895CF92DF92EF923B
:100F3000FF920F931F93CF93DF9300D01F92CDB7F3
:100F4000DEB78C018EEFE82E8091E800982F957027
:100F5000D9F382FD2FC0262F613408F020E4F22E51
:100F600068011CC0411103C0F601808104C04130FA
:100F700029F4F60184918093F1000DC0423059F4B8
:100F8000C60129834B836A830E94E50B8093F1009D
:100F90006A814B812981FFEFCF1ADF0AFA948FEF24
:100FA000F812E0CF020F111DE092E800621B61F61B
:100FB000203451F20F900F900F90DF91CF911F913D
:100FC0000F91FF90EF90DF90CF90089580EA80938B
:100FD000D80086E089BD09B400FEFDCF80E880938B
:100FE000D8001092E00089E08093E20081E08093D5
:100FF000CA018093C60182E08093C201789408956B
:101000002FB7F8948091BB01882331F03091BA0159
:1010100081E090E0332311F080E090E02FBF08954D
:101020008091BA018823C1F08091B9018823A1F091
:1010300089B5826089BD09B400FEFDCF8091D800DA
:101040008F7D8093D8008091E00082608093E000E3
:101050001092B90181E0089580E008952FB7F894C7
:101060003091BB01332351F03091BA01311106C0E8
:101070004093E9003091E80035FD08C02FBF80E0C3
:101080000895FC013191CF013093F1006150C8F710
:101090008AE18093E8002FBF81E008951F920F92AC
:1010A0000FB60F9211248F939F938091E1001092BD
:1010B000E10083FF16C01092E90081E08093EB000D
:1010C0001092EC0092E39093ED0098E09093F00082
:1010D0008093CA011092BA011092B9011092BB011B
:1010E0004FC09091BB01992309F44AC080FF1AC0F8
:1010F0009091E20090FF16C09091E2009E7D909347
:10110000E2009091E20090619093E2009091D8000B
:1011100090629093D80099B59D7F99BD91E090938E
:10112000BA011BC084FF19C09091E20094FF15C062
:1011300099B5926099BD09B400FEFDCF9091D80099
:101140009F7D9093D8009091E2009F7E9093E20063
:101150009091E20095629093E20085FF04C0909127
:10116000E20095FD06C082FF0BC08091E20082FF85
:1011700007C08091E2008B7D8093E2001092BA015B
:101180009F918F910F900FBE0F901F9018951F92F7
:101190000F920FB60F9211242F933F934F935F93AB
:1011A0006F937F938F939F93AF93BF93EF93FF932F
:1011B0001092E9008091E80083FF5BC19091F100FB
:1011C0008091F1004091F1005091F100352F20E025
:1011D000242B6091F1007091F100572F40E0462BD5
:1011E000A091F100B091F10062EF6093E8008630C9
:1011F00009F030C083E394E0FC01659174916217BB
:10120000730739F4FC013296659174916417750780
:1012100031F0089664E08338960771F72AC1009789
:1012200009F427C17B2F60E06A2BFC0137965491AB
:101230009B012227232B09F06FEFFC013696449186
:101240000496FC0125913491C901561708F00EC18E
:10125000652F0CC1853059F48EEF8093E8008091A2
:10126000E80080FFFCCF20682093E3000AC18930AA
:1012700041F5911185C08EEF8093E8002093BB016A
:1012800083E894E041E001C0C9014093E9009C017A
:101290002F5F3F4FFC0154915093EB00552361F0B9
:1012A000F90124912093EC009C012D5F3F4FFC013C
:1012B000329684918093ED004F5F453029F78EE19F
:1012C0004AC0883041F4903809F05AC08091BB017F
:1012D0008093F10081C081111AC0923851F440937B
:1012E000E9008091EB0085FB882780F91092E900E6
:1012F00009C0903831F48091B901882311F082E05F
:1013000001C080E08093F1001092F10065C081304F
:1013100011F08330A9F5923019F52115310509F046
:10132000ACC0BA016F777727E62FE150E43008F0C0
:10133000A4C09EEF9093E8006093E900833009F425
:1013400098C089E18093EB0081E090E0062E01C017
:10135000880F0A94EAF78093EA001092EA0091C09D
:1013600091110EC02130310509F087C09EEF909396
:10137000E80091E0833009F090E09093B90181C0DA
:101380004115510509F05BC0913AB1F4813029F45F
:1013900040E068E08BEC91E069C0823029F440E0E5
:1013A00061E089EC91E062C0833009F062C040E006
:1013B00061E08AEC91E05AC0913209F05AC089305C
:1013C00079F48091E80082FFFCCF8091F100809356
:1013D000D3018BEF8093E8008EEF8093E80051C03B
:1013E0008A3029F58EEF8093E800232F3327422F90
:1013F000211103C01092C50117C08091C901882333
:1014000051F08091C9015091C50190E0851B91096F
:101410008217930714F081E005C08091C501F22F77
:10142000F81B8F2F8093C5014093C9012AC08B30D0
:1014300001F58EEF8093E8002093CA0122C041306D
:101440005105B9F4913AA9F4813099F43327213048
:10145000310529F440E063E086EC91E007C02230DA
:10146000310539F440E063E082EC91E00E94950799
:1014700008C081E28093EB0004C041155105C9F317
:10148000DECFFF91EF91BF91AF919F918F917F91AF
:101490006F915F914F913F912F910F900FBE0F90E1
:1014A0001F901895882311F1EBECF1E0119291E077
:1014B000E33DF907D9F790E0019763E070E00E94FF
:1014C000D30BFC01E557FB4FE491E093BC01FC0119
:1014D000E457FB4F859194918093BD019093BE0199
:1014E0001092C0011092BF0181E808958091BF0160
:1014F0009091C0019C01215031093093C00120938B
:10150000BF01892B09F052C04091BD015091BE012D
:10151000A091BC01A15090E080E8FA01259134919E
:101520004E5F5F4FEA2FE150B901607F603E710569
:1015300061F427700024039401C0000C2A95EAF797
:10154000202D922B81E8AE2FE8CF5093BE0140931F
:10155000BD01A093BC019093CB0137FF02C03F7740
:101560000AC035FF0DC03F703093C8012093C701FA
:10157000826024E130E03093C0012093BF0112C0AB
:1015800036FF07C03F703093C4012093C3018460CD
:10159000F0CF2093CD0184E090E09093C001809340
:1015A000BF0181E8A11103C08F77089580E80895F5
:1015B00010926E0081E08093E000F89480E28093C6
:1015C000D80089B58D7F89BD88E10FB6F8948093E6
:1015D0006000109260000FBE14B815B817B818B8A4
:1015E0001AB81BB81092640010928000109281000B
:1015F00014BC15BC8FEF9FE70197F1F7E3E0F0E033
:1016000089E080935700E491E670E63019F40C9479
:10161000003F09C0E43019F40C94003E04C0E230ED
:1016200011F40C94003C0C940038FFCF0E94490741
:101630000E94E6078DE78093C90183B7817F83BF4E
:101640000E942F0710E008E0FF24F39488E1E82EC1
:10165000C8E1D0E09DE0D92E02C0FF24F39483B707
:10166000816083BF01C088958091C1018823D9F32F
:1016700083B78E7F83BF1092C1010E940008882328
:1016800009F462C0FF2021F180E090E80FB6F894E1
:1016900090936100809361000FBE81E00E94E3049B
:1016A0000E9424070FB6F894A895C09360000FBE5F
:1016B000D092600081E00E946B0681E00E940605E6
:1016C0008091C9018093C50110E008E0F12CC7CFDB
:1016D000002311F001500CC08091C501815080930E
:1016E000C501811104C08091C9018111116008E018
:1016F00080E00E94060580E00E946B06182B10FF18
:101700000DC043E068E08BEC91E00E942E08882336
:1017100029F01E7F8091C9018093C50111FF08C087
:1017200044E063E086EC91E00E942E0881111D7F69
:1017300012FF08C044E063E082EC91E00E942E08B2
:1017400081111B7FA8958BCF8091BA01882309F462
:1017500086CFF1101CC081E00E94060581E00E9446
:10176000E30481E00E944E060FB6F894E092600018
:10177000109260000FBE0E94190780E891E00FB63A
:10178000F89480936100909361000FBE66CF80E073
:101790000E94E30480E00E944E06882309F45DCF96
:1017A0000E9410085ACF5527002480FF02C0060E61
:1017B000571F660F771F6115710521F09695879564
:1017C000009799F7952F802D0895F999FECF92BD36
:0E17D00081BDF89A992780B50895F894FFCF4F
:00000001FF
