:100000000C94C6010C94E1010C94E1010C94E10103
:100010000C94E1010C94E1010C94E1010C94E101D8
:100020000C94E1010C94E1010C9498060C941107D6
:100030000C94E1010C94E1010C94E1010C94E101B8
:100040000C94E1010C94E1010C94E1010C94E101A8
:100050000C94E1010C94E1010C94E1010C94E10198
:100060000C94E1010C94E1010C94E1010C94E10188
:100070000C94E1010C94E1010C94E1010C94E10178
:100080000C945A050C94E1010C94E1010C94E101EB
:100090000C94E1010C94E1010C94E1010C94E10158
:1000A0000C94E1010C94E1010C94E1015100500029
:1000B0005200E0004F0053004E004A004B00390050
:1000C00028005600EA40B640E9404700B540CD4020
:1000D000A200A300A400A000A1005300FFFFFFFFA7
:1000E000FFFFFFFFFFFFFFFFFDFBF9F7F3EDE5DD8E
:1000F000D1C5B5A59583736346281405000514285A
:100100004663738395A5B5C5D1DDE5EDF3F7F9FB3E
:10011000FDFFFFFFFFFFFFFFFFFFFFFF09023B00A7
:10012000020100A0190904000001030101000921D6
:1001300011010001223D00070583030800010904A5
:10014000010001030000000921110100012230001B
:100150000705840303000A12010002000000401694
:1001600025BEBA000201020301160331003100343A
:1001700000340031003000300030003000300030FA
:10018000034B006500790062006F0061007200643B
:10019000002000530047004B002D0031003000319B
:1001A0000030002D00420042004300410031001C9D
:1001B0000343006F006F006C006500720020004D6B
:1001C00000610073007400650072000403090405F7
:1001D000010980A1018501158125B7198129B7750C
:1001E0001095018100C0050C0901A10185021501CE
:1001F000269C0219012A9C02751095018100C005F8
:10020000010906A10175019508050719E029E715FF
:100210000025018102950175088103950575010589
:100220000819012905910295039103950675081592
:100230000025DD0507190029DD8100C0000100004F
:1002400057010112000200001C01013B00210000C7
:100250002E01010900220000FF01013D00210100E3
:100260004701010900220100CF0101300003000015
:10027000CB01010401030904AF01011C02030904BD
:100280007F0101300303090469010116000001C167
:100290000601C10600000C0009002C00E100260048
:1002A0002C0000002C00E10027002800E1002F00B6
:1002B0002800E100300052000000520000004F0012
:1002C00000004F0000004F0000004F000000280019
:1002D00008000F00160008002800E1002F00280089
:1002E000E100300052002800000009001200150053
:1002F0002C00E10026002C003300000033002C000D
:10030000E10027002800E1002F002800E100300074
:1003100052000000520000004F0000004F0000009B
:100320004F0000004F0000004F0000004F00000091
:10033000070012002800E1002F002800E100300033
:1003400028001A000B000C000F0008002C00E10030
:1003500026002C0000002C00E10027002C003300B8
:10036000500000005000000050000000500000004D
:1003700023420040E3000F0000001C96020ECE0254
:1003800023EA0220300302700303740311241FBE0A
:10039000CFEFDAE0DEBFCDBF14BE88E10FB6F89430
:1003A00080936000109260000FBE11E0A0E0B1E009
:1003B00001C01D92A334B107E1F70E9423090C94F8
:1003C000E8090C94000085FF02C09FEF98BD84FFF0
:1003D00003C09FEF9093CF0083FF03C09FEF9093E4
:1003E0008A0082FF02C09FEF97BD81FF03C09FEF8D
:1003F0009093D20080FF03C08FEF80938800089510
:1004000085FD68BD84FD6093CF0083FD60938A0005
:1004100082FD67BD81FD6093D20080FD60938800FE
:100420000895DF92EF92FF920F931F93CF93DF9384
:10043000D82E80914201813059F080914201843060
:1004400051F080914201823049F428EB30E008C03D
:1004500020ED30E005C024EC30E002C02CEA30E0B2
:1004600010920B0110920A011092090110920801DA
:1004700010920001C0E0D0E0A0E0B0E000912701C0
:10048000909126014091240150912501B90186E007
:10049000E82EF12C80E010E0D0FE51C0FB01259148
:1004A000349134FF03C0207F822B49C035FF03C045
:1004B000E901DF7044C036FF03C0D901BF703FC0FF
:1004C000F901E07FFF27E03EF10551F42770002499
:1004D000039401C0000C2A95EAF7202DF22A2FC0C0
:1004E000E03AF10509F5223A3105B1F040F4203A3D
:1004F000310569F0213A310511F59F5F10C0233AAB
:10050000310561F0243A3105D1F4925E08C0002330
:1005100091F090E000E013C09B5F01C0965F011175
:100520000EC040E65AEE0AC0E12FF0E0E050FF4F67
:1005300022831F5F04C041E050E091E001E0D694C7
:10054000EA946E5F7F4FE110A7CFD0930B01C09369
:100550000A01B0930901A0930801F09200010093F1
:1005600027019093260150932501409324011630D2
:1005700038F4E12FF0E0E050FF4F12821F5FF7CF19
:100580006FB7F8949091000120913A01921719F0F9
:1005900090933A01816096E0915078F0E92FF0E075
:1005A000DF01A050BF4F12962C91E65CFE4F3281C6
:1005B000321791F322838160EFCF20910A013091AD
:1005C0000B0140913601509137012417350729F06E
:1005D00030933701209336018260209108013091D9
:1005E000090140913201509133012417350729F058
:1005F000309333012093320184606FBFDF91CF913C
:100600001F910F91FF90EF90DF9008950F931F932C
:10061000CF93DF938DE280931601C0E0D0E010E02D
:1006200000911501FE01E00FF11DEF73FF27E45269
:10063000FF4F6491812F0024039401C0000C8A9520
:10064000EAF7802D0E9400021F5F2596163041F7C1
:1006500081E0800F8F7380931501DF91CF911F91FF
:100660000F910895882331F02E9810922301109253
:100670002201089580912201909123019C01215033
:1006800031093093230120932201892B69F42E9B99
:1006900004C02E9887EB9BE003C02E9A81E090E087
:1006A000909323018093220108951F93CF93DF93AA
:1006B000882301F180E197E290932101809320014A
:1006C00088EB9BE090931F0180931E0110921D0107
:1006D00010921C0110921B0185E190E090931A0189
:1006E000809319018FE30E94E30180E092E001977B
:1006F000F1F740C180911D019FEF980F90931D016C
:10070000811138C181E080931D01809127018823E8
:1007100009F453C020912601211134C09091180191
:100720008FEF890F8093180191111DC088E180938C
:100730001801C0911901D0911A01C0FF04C060E0F6
:1007400085E10E940002D0FF04C060E08AE20E94BE
:100750000002CE0180FB979597F9879590931A0137
:100760008093190105C0853019F48FE30E94E301DD
:100770008091420190911701981709F4FBC01092E3
:100780002701F8C080912401909125010197909351
:10079000250180932401892B81F480E69AEE9093C1
:1007A0002501809324018FEF820F80932601811110
:1007B00004C08091420180931701809142018770AB
:1007C000C0911E01D0911F01882309F4B1C0C83B1C
:1007D000DB4051F088EB9BE090931F0180931E015A
:1007E00010921C0110921B0180914201873009F088
:1007F00056C0809120019091210101979093210191
:1008000080932001892B09F050C01092710081E083
:100810008093E000F89488E10FB6F894809360002C
:10082000109260000FBE80E28093D80089B58D7F62
:1008300089BD14B815B817B818B81AB81BB81DB8C0
:100840001EB810BA11BA14BC15BC109280001092D8
:10085000810010929000109291001092C0001092AE
:10086000C1001092C2008FEF9FE70197F1F7E3E01C
:10087000F0E089E080935700E491E670E63019F4E7
:100880000C94003F09C0E43019F40C94003E04C0FD
:10089000E23011F40C94003C0C940038FFCF80E15E
:1008A00097E2909321018093200110911C01112364
:1008B00029F080911B01815080931B01809142019E
:1008C00080FD02C0D0E001C0D0E28091420181FDF4
:1008D000D7618091420182FDD860C0911B01C13572
:1008E00020F46C2F660F609508C064EB6C1B80E5EC
:1008F0008C1B94E0899F600D11248D2F0E940002B3
:100900008FE38D270E94E301112329F0C11132C02A
:1009100010921C012FC081E08C0F80931B01853643
:1009200048F1C150C0931B0181E080931C0122C09B
:10093000209799F0C83B8BE0D80719F48FE30E9409
:10094000E3012197D0931F01C0931E01CD2B91F499
:1009500010921601109215010DC0809116019FEFA3
:10096000980F90931601811105C0DF91CF911F91CF
:100970000C940603DF91CF911F910895882319F0FD
:10098000109214010FC08FB1837F21E0833F09F4DF
:1009900020E090911401990F922B9093140181E023
:1009A0009F3709F080E00895811147C080910C01C4
:1009B000882311F080E037C06FB1629580910D01FE
:1009C000EEE0F1E091E040E021E0E431F20701F1F6
:1009D00020812F73332727FD3095220F331F51E0DD
:1009E000792F762309F050E0252B2193203439F418
:1009F000282F292359F0292F2095822306C02F3331
:100A000029F4282F292311F4892B41E0990FDCCFF9
:100A100080930D01442379F00E941102982F907F5A
:100A2000D1F082958F700E949608982F90789093BD
:100A30000C018F70089580E00895EEE0F1E01192CE
:100A400021E0E431F207D9F710920D0110920C0168
:100A500080E00C9411020895E0E8F0E080818F7C42
:100A60008083E4E6F0E0808188628083E5E6F0E060
:100A70008081806180830895E4E6F0E08081877D55
:100A80008083E5E6F0E080818F7E8083E0E8F0E01F
:100A90008081806380830895109295001092940065
:100AA00081E088BB82E088BBE1E7F0E08081826082
:100AB000808308951F920F920FB60F9211248F9387
:100AC00081E0809330018F910F900FBE0F901F90A7
:100AD0001895CF9340E840BF20917800309179007D
:100AE00081E090E0022E01C0880F0A94EAF7846842
:100AF0008093640081E08093650014B88FE185B92C
:100B000017B880E488B98AB99EE79BB91DB88EB939
:100B100010BA83EF81BB80E00FB6F8944093610078
:100B2000809361000FBE5E9885E08093910083B54D
:100B3000816083BD8BEC93EF90939500809394003C
:100B400081E088BBC09BFECFC2E0C093910088EEDD
:100B500093E0909399008093980080919100886031
:100B60008093910010928500109284008FE30E9480
:100B7000E30163EC88E00E940002C5BD83EF84BD01
:100B8000279A509AC093810081EF809380008091D2
:100B90008100886080938100259A269A8FEF809348
:100BA000D10082EC8093C0008DEC8093C20084E081
:100BB0008093C1003F9A579ACF910895CF92DF92C8
:100BC000EF92FF920F931F93CF93DF9300D01F926A
:100BD000CDB7DEB78C018EEFE82E8091E800982F1C
:100BE0009570D9F382FD2FC0262F613408F020E4E0
:100BF000F22E6801FA948FEFF816E9F0411103C064
:100C0000F601808104C0413029F4F601849180937B
:100C1000F1000DC0423059F4C60129834B836A8329
:100C20000E94E0098093F1006A814B812981FFEFE6
:100C3000CF1ADF0ADFCF020F111DE092E800621B1E
:100C400061F6203451F20F900F900F90DF91CF9109
:100C50001F910F91FF90EF90DF90CF90089581E06A
:100C60008093D70080EA8093D80082E189BD09B4DF
:100C700000FEFDCF80E98093D8001092E00089E06B
:100C80008093E20081E0809339018093350182E016
:100C900080933101789408959FB7F89480912A0148
:100CA000882321F02091290181E0211180E09FBF5C
:100CB0000895809129018823C1F08091280188231B
:100CC000A1F089B5826089BD09B400FEFDCF809195
:100CD000D8008F7D8093D8008091E000826080935F
:100CE000E0001092280181E0089580E008952FB778
:100CF000F89430912A01332361F0309129013111A8
:100D000008C04093E9003091E80035FF02C0FC01C3
:100D100003C02FBF80E00895615020F0819180933F
:100D2000F100FACF8AE18093E8002FBF81E00895B7
:100D30001F920F920FB60F9211248F939F93809161
:100D4000E1001092E10083FF16C01092E90081E0FB
:100D50008093EB001092EC0092E39093ED0098E00A
:100D60009093F0008093390110922901109228018C
:100D700010922A014FC090912A01992309F44AC088
:100D800080FF1AC09091E20090FF16C09091E2009F
:100D90009E7D9093E2009091E20090619093E2003A
:100DA0009091D80090629093D80099B59D7F99BD9D
:100DB00091E0909329011BC084FF19C09091E2003B
:100DC00094FF15C099B5926099BD09B400FEFDCF9E
:100DD0009091D8009F7D9093D8009091E2009F7EE3
:100DE0009093E2009091E20095629093E20085FF7B
:100DF00004C09091E20095FD06C082FF0BC0809177
:100E0000E20082FF07C08091E2008B7D8093E200C8
:100E1000109229019F918F910F900FBE0F901F90FC
:100E200018951F920F920FB60F9211242F933F9394
:100E30004F935F936F937F938F939F93AF93BF93E2
:100E4000CF93EF93FF931092E9008091E80083FF26
:100E500036C13091F1002091F1008091F100409174
:100E6000F10090E0942B4091F1006091F10050E08E
:100E7000562B6091F100C091F10072EF7093E80081
:100E8000263009F40EC1253059F42EEF2093E800E6
:100E90002091E80020FFFCCF80688093E30034C1FC
:100EA000293041F531114CC09EEF9093E8008093BA
:100EB0002A018CE892E041E04093E9009C012F5F19
:100EC0003F4FFC0154915093EB00552361F0F90121
:100ED00024912093EC009C012D5F3F4FFC01329642
:100EE00084918093ED004F5F473011F0C901E4CF4A
:100EF0008EE748C0283041F4303809F058C080915E
:100F00002A018093F1007FC021111AC0323851F4B8
:100F10004093E9008091EB0085FB882780F91092CF
:100F2000E90009C0303831F480912801882311F09C
:100F300082E001C080E08093F1001092F10063C074
:100F4000622F6D7F613099F5323009F5009709F015
:100F50008CC0642F6F777FEF760F763008F085C0F6
:100F60008EEF8093E8006093E900233009F4A7C076
:100F700089E18093EB0081E090E0062E01C0880FAC
:100F80000A94EAF78093EA001092EA00BDC031119A
:100F90000EC08130910509F068C08EEF8093E800A3
:100FA00081E0233009F080E080932801ADC0411535
:100FB000510509F05DC0313AB1F4213029F440E027
:100FC00068E08AE391E06AC0223029F440E061E001
:100FD00088E391E063C0233009F071C040E061E034
:100FE00089E391E05BC0313209F069C0293079F4BE
:100FF0008091E80082FFFCCF8091F1008093420154
:101000008BEF8093E8008EEF8093E8007DC02A305C
:1010100021F52EEF2093E800892F9927009719F4E6
:101020001092340117C020913801222351F02091F1
:1010300038014091340130E0241B31092817390769
:1010400014F021E005C020913401F82FF21B2F2F5E
:10105000209334018093380157C02B3081F59EEFE7
:101060009093E800809339014FC04115510539F143
:101070004130510521F5313A11F5213001F599271B
:101080008130910529F440E063E085E391E006C0FA
:101090000297A9F440E063E081E391E00E94DE055D
:1010A00033C02CE332E0F901A591B491A817B90738
:1010B00051F0285F3F4F72E02C383707A1F781E2EB
:1010C0008093EB0021C0F9013296A591B491A41749
:1010D000B50779F72115310591F370E07C2BF90103
:1010E00037965491CB018827892B09F06FEFF901CE
:1010F000369644912C5F3F4FF90185919491561794
:1011000008F0CCCF652FCACFFF91EF91CF91BF915F
:10111000AF919F918F917F916F915F914F913F918F
:101120002F910F900FBE0F901F901895882349F1B3
:10113000EAE3F1E091E0E234F90711F01192FACF1D
:1011400090E00197FC01EE0FFF1FE80FF91FE65832
:10115000FC4FE491E0932F01FC01EE0FFF1FE80F1D
:10116000F91FE558FC4F8591949190932E0180933F
:101170002D0182E090E090932C0180932B0181E877
:10118000089580912B0190912C019C0121503109EF
:1011900030932C0120932B01892B09F052C04091F0
:1011A0002D0150912E01A0912F01A15090E080E8D7
:1011B000FA01259134914E5F5F4FEFEFEA0FB901CD
:1011C000607F603E710561F427700024039401C0C4
:1011D000000C2A95EAF7202D81E8922BAE2FE8CF5C
:1011E00050932E0140932D01A0932F0190933A012B
:1011F00037FF02C03F770AC035FF0DC03F70309304
:10120000370120933601826024E130E030932C01D5
:1012100020932B0112C036FF07C03F70309333017B
:10122000209332018460F0CF20933C0182E090E073
:1012300090932C0180932B0181E8A11103C08F773B
:10124000089580E808950E9469050E942F068DE7A1
:101250008093380183B7817F83BF0E944C0510E0E3
:1012600008E0FF24F39488E1E82EC8E1D0E09DE097
:10127000D92E83B7816083BF80913001811102C074
:101280008895FACF83B78E7F83BF109230010E947A
:101290004C06882309F464C0FF2021F180E090E827
:1012A0000FB6F89490936100809361000FBE81E0C7
:1012B0000E9432030E943C050FB6F894A895C09393
:1012C00060000FBED092600081E00E94D40481E0F3
:1012D0000E945503809138018093340110E008E0AA
:1012E000F12CC7CF002311F001500CC080913401C4
:1012F000815080933401811104C0809138018111A3
:10130000116008E080E00E94550380E00E94D40450
:10131000182B10FF0FC05E9A43E068E08AE391E06B
:101320000E947706882329F01E7F809138018093E0
:1013300034015E9811FF08C044E063E085E391E06A
:101340000E94770681111D7F12FF08C044E063E010
:1013500081E391E00E94770681111B7FA89589CFD8
:1013600080912901882309F484CFF1101EC081E007
:101370000E94550381E00E94320381E00E94BE0476
:101380000FB6F894E0926000109260000FBE0E94C9
:101390002C0580E891E00FB6F8948093610090935B
:1013A00061000FBEFF24F39464CF80E00E943203FB
:1013B00080E00E94BE048823A9F30E945906F2CF60
:1013C000F999FECF92BD81BDF89A992780B508950D
:0413D000F894FFCFBF
:00000001FF
